:020000040000FA
:0600000022EF62F0120085
:0A00060030313233343536373839E3
:070010006162636465660094
:08001800F2A402D0C4EF3FF096
:020020001200CC
:0E0022000200A3C40000000F00001400000044
:0C00300084C40000600000001F000000FD
:04003C0000000000C0
:100040000000000000000000000180000003C0006C
:100050000007E000000FF0C0001E78C0003DBCC0EB
:10006000007BDEC000F7EFC001EFF7C003DFFBC08D
:1000700007BFFDE00F7FFEF01EFFFF783DFFFFBCD6
:100080003BFFFFDC03FFFFC003FFFFC003FFFFC018
:1000900003FFFFC003F81FC003F81FC003F81FC011
:1000A00003F81FC003F81FC003F81FC003F81FC0E8
:1000B000000000000000000000000000FFFFFFFF44
:1000C000F7DEF7DEF7DEF7DEF7DEF7DEF7DEF7DE88
:1000D000F7DEF7DEF7DEF7DEF7DEF7DEF7DEF7DE78
:1000E000F7DEF7DEF7DEF7DEF7DEF7DEF7DEF7DE68
:1000F000F7DEF7DEF7DEF7DEF7DEF7DEF7DEF7DE58
:10010000F7DEF7DEF7DEF7DEF7DEF7DEF7DEF7DE47
:10011000F7DEF7DEF7DEF7DEF7DEF7DEF7DEF7DE37
:10012000F7DEF7DEF7DEF7DEF7DEF7DEF7DEF7DE27
:10013000F7DEF7DEF7DEF7DEF7DEF7DEF7DEF7DE17
:10014000F7DEF7DEF7DEF7DEF7DEF7DEF7DEF7DE07
:10015000F7DEF7DEF7DEF7DEF7DEF7DEF7DEF7DEF7
:10016000F7DEF7DEF7DEF7DEF7DEF7DEF7DEF7DEE7
:10017000F7DEF7DEF7DEF7DEF7DEF7DEF7DEF7DED7
:10018000F7DEF7DEF7DEF7DEF7DEF7DEF7DEF7DEC7
:10019000F7DEF7DEF7DEF7DEF7DEF7DEF7DEF7DEB7
:1001A000F7DEF7DEF7DEF7DEF7DEF7DEF7DEF7DEA7
:1001B000F7DEF7DEF7DEF7DEF7DEF7DEF7DEF7DE97
:1001C000F7DEF7DEF7DEF7DEF7DEF7DEF7DEF7DE87
:1001D000F7DEF7DEF7DEF7DEF7DEF7DEF7DEF7DE77
:1001E000F7DEF7DEF7DEF7DEF7DEF7DEF7DEF7DE67
:1001F000F7DEF7DEF7DEF7DEFFFFFFFFFFFFF7DEDC
:10020000F7DEF7DEF7DEF7DEF7DEF7DEF7DEF7DE46
:10021000F7DEF7DEF7DEF7DEF7DEF7DEF7DEF7DE36
:10022000F7DEF7DEF7DEF7DEF7DEF7DEF7DEF7DE26
:10023000F7DEF7DEF7DEF7DEF7DEF7DEF7DEF7DE16
:10024000F7DEF7DEF7DEF7DEF7DEF7DEF7DEF7DE06
:10025000F7DEF7DEF7DEF7DEF7DEF7DEF7DEF7DEF6
:10026000F7DEF7DEF7DEF7DEF7DEF7DEF7DEF7DEE6
:10027000F7DEF7DEF7DEF7DEF7DEF7DEF7DEF7DED6
:10028000F7DEF7DEF7DEF7DEF7DEF7DEF7DEF7DEC6
:10029000F7DEF7DEF7DEF7DEF7DEF7DEF7DEF7DEB6
:1002A000F7DEF7DEF7DEF7DEF7DEF7DEF7DEF7DEA6
:1002B000F7DEF7DEF7DEF7DEF7DEF7DEF7DEF7DE96
:1002C000F7DEF7DEF7DEF7DEF7DEF7DEF7DEF7DE86
:1002D000F7DEF7DEF7DEF7DEF7DEF7DEF7DEF7DE76
:1002E000F7DEF7DEF7DEF7DEF7DEF7DEF7DEF7DE66
:1002F000F7DEF7DEF7DEF7DEF7DEF7DEF7DEF7DE56
:10030000F7DEF7DEF7DEF7DEF7DEF7DEF7DEF7DE45
:10031000F7DEF7DEF7DEF7DEF7DEF7DEF7DEF7DE35
:10032000F7DEF7DEF7DEF7DEF7DEF7DEF7DEF7DE25
:10033000F7DEF7DEF7DEF7DEF7DEFFFFF7DEF7DEEC
:10034000F7DEF7DEF7DEF7DEF7DEF7DEF7DEF7DE05
:10035000F7DEF7DEF7DEF7DEF7DEF7DEF7DEF7DEF5
:10036000F7DEF7DEF7DEF7DEF7DEF7DEF7DEF7DEE5
:10037000F7DEF7DEF7DEF7DEF7DEF7DEF7DEF7DED5
:10038000F7DEF7DEF7DEF7DEF7DEF7DEF7DEF7DEC5
:10039000F7DEF7DEF7DEF7DEF7DEF7DEF7DEF7DEB5
:1003A000F7DEF7DEF7DEF7DEF7DEF7DEF7DEF7DEA5
:1003B000F7DEF7DEF7DEF7DEF7DEF7DEF7DEF7DE95
:1003C000F7DEF7DEF7DEF7DEF7DEF7DEF7DEF7DE85
:1003D000F7DEF7DEF7DEF7DEF7DEF7DEF7DEF7DE75
:1003E000F7DEF7DEF7DEF7DEF7DEF7DEF7DEF7DE65
:1003F000F7DEF7DEF7DEF7DEF7DEF7DEF7DEF7DE55
:10040000F7DEF7DEF7DEF7DEF7DEF7DEF7DEF7DE44
:10041000F7DEF7DEF7DEF7DEF7DEF7DEF7DEF7DE34
:10042000F7DEF7DEF7DEF7DEF7DEF7DEF7DEF7DE24
:10043000F7DEF7DEF7DEF7DEF7DEF7DEF7DEF7DE14
:10044000F7DEF7DEF7DEF7DEF7DEF7DEF7DEF7DE04
:10045000F7DEF7DEF7DEF7DEF7DEF7DEF7DEF7DEF4
:10046000F7DEF7DEF7DEF7DEF7DEF7DEF7DEF7DEE4
:10047000F7DEF7DEF7DEF7DEF7DEF7DEF7DEF7DED4
:10048000F7DEF7DEF7DEF7DEF7DEF7DEF7DEF7DEC4
:10049000F7DEF7DEF7DEF7DEF7DEF7DEF7DEF7DEB4
:1004A000F7DEF7DEF7DEF7DEF7DEF7DEF7DEF7DEA4
:1004B000F7DEF7DEF7DEF7DEF7DEF7DEF7DEF7DE94
:1004C000F7DEF7DEF7DEF7DEF7DEF7DEF7DEF7DE84
:1004D000F7DEF7DEF7DEF7DEF7DEF7DEF7DEF7DE74
:1004E000F7DEF7DEF7DEF7DEF7DEF7DEF7DEF7DE64
:1004F000F7DEF7DEF7DEF7DEF7DEF7DEF7DEF7DE54
:10050000F7DEF7DEF7DEF7DEF7DEF7DEF7DEF7DE43
:1005100018EE18EE18EE18EE18EE18EE18EE18EEAB
:1005200018EE18EE18EE18EEF7DEF7DEF7DEF7DE5F
:10053000F7DEF7DEF7DEF7DEF7DEF7DEF7DEF7DE13
:10054000F7DEF7DEF7DEF7DEF7DEF7DEF7DEF7DE03
:10055000F7DEF7DEF7DEF7DEF7DEF7DEF7DEF7DEF3
:10056000F7DEF7DEF7DEF7DEF7DEF7DEF7DEF7DEE3
:10057000F7DEF7DEF7DEF7DEF7DEF7DEF7DEF7DED3
:10058000F7DEF7DEF7DEF7DEF7DEF7DEF7DEF7DEC3
:10059000F7DEF7DEF7DEF7DEF7DEF7DEF7DEF7DEB3
:1005A000F7DEF7DEF7DEF7DEF7DEF7DEF7DEF7DEA3
:1005B000F7DEF7DEF7DEF7DEF7DEF7DEF7DEF7DE93
:1005C000F7DEF7DEF7DEF7DEF7DEF7DEF7DEF7DE83
:1005D000F7DEF7DEF7DEF7DEF7DEF7DEF7DEF7DE73
:1005E000F7DEF7DEF7DEF7DEF7DEF7DEF7DEF7DE63
:1005F000F7DEF7DEF7DEF7DEF7DEF7DEF7DEF7DE53
:10060000F7DEF7DEF7DEF7DEF7DEF7DEF7DEF7DE42
:10061000F7DEF7DEF7DEF7DEF7DEF7DEF7DEF7DE32
:10062000F7DEF7DEF7DEF7DEF7DEF7DEF7DEF7DE22
:10063000F7DE18EE18EE18EE18EE18EE18EE18EEBB
:1006400018EE18EE18EE18EE18EE18EE18EE18EE7A
:1006500018EE18EE18EE18EE18EE18EE18EE18EE6A
:1006600018EE18EE18EE18EE18EE18EE18EE18EE5A
:1006700018EE18EE18EE18EE18EE18EE18EE18EE4A
:1006800018EE18EE18EEF7DEF7DEF7DEF7DEF7DE2F
:10069000F7DEF7DEF7DEF7DEF7DEF7DEF7DEF7DEB2
:1006A000F7DEF7DEF7DEF7DEF7DEF7DEF7DEF7DEA2
:1006B000F7DEF7DEF7DEF7DEF7DEF7DEF7DEF7DE92
:1006C000F7DEF7DEF7DEF7DEF7DEF7DEF7DEF7DE82
:1006D000F7DEF7DEF7DEF7DEF7DEF7DEF7DEF7DE72
:1006E000F7DEF7DEF7DEF7DEF7DEF7DEF7DEF7DE62
:1006F000F7DEF7DEF7DEF7DEF7DEF7DEF7DEF7DE52
:10070000F7DEF7DEF7DEF7DEF7DEF7DEF7DEF7DE41
:10071000F7DEF7DEF7DEF7DEF7DEF7DEF7DEF7DE31
:10072000F7DEF7DEF7DEF7DEF7DEF7DEF7DEF7DE21
:10073000F7DEF7DEF7DEF7DEF7DEF7DEF7DEF7DE11
:10074000F7DEF7DEF7DEF7DEF7DEF7DEF7DEF7DE01
:10075000F7DEF7DEF7DEF7DEF7DEF7DEF7DEF7DEF1
:1007600018EE18EE18EE18EE18EE18EE18EE18EE59
:1007700018EE18EE18EE18EE18EE18EE18EE18EE49
:1007800018EE18EE18EE18EE18EE18EE18EE18EE39
:1007900018EE18EE18EE18EE18EE18EE18EE18EE29
:1007A00018EE18EE18EE18EE18EE18EE18EE18EE19
:1007B00018EE18EE18EE18EE18EE18EE18EE18EE09
:1007C00018EE18EE18EE18EE18EE18EE18EE18EEF9
:1007D00018EE18EE18EE18EEF7DEF7DEF7DEF7DEAD
:1007E000F7DEF7DEF7DEF7DEF7DEF7DEF7DEF7DE61
:1007F000F7DEF7DEF7DEF7DEF7DEF7DEF7DEF7DE51
:10080000F7DEF7DEF7DEF7DEF7DEF7DEF7DEF7DE40
:10081000F7DEF7DEF7DEF7DEF7DEF7DEF7DEF7DE30
:10082000F7DEF7DEF7DEF7DEF7DEF7DEF7DEF7DE20
:10083000F7DEF7DEF7DEF7DEF7DEF7DEF7DEF7DE10
:10084000F7DEF7DEF7DEF7DEF7DEF7DEF7DEF7DE00
:10085000F7DEF7DEF7DEF7DEF7DEF7DEF7DEF7DEF0
:10086000F7DEF7DEF7DEF7DEF7DEF7DEF7DEF7DEE0
:10087000F7DEF7DEF7DEF7DEF7DEF7DEF7DEF7DED0
:10088000F7DEF7DEF7DEF7DEF7DEF7DEF7DEF7DEC0
:10089000F7DEF7DEF7DE18EE18EE18EE18EE18EEBB
:1008A00018EE18EE18EE18EE18EE18EE18EE18EE18
:1008B00018EE18EE18EE18EE18EE18EE18EE18EE08
:1008C00018EE18EE18EE18EE18EE18EE18EE18EEF8
:1008D00018EE18EE18EE18EE18EE18EE18EE18EEE8
:1008E00018EE18EE18EE18EE18EE18EE18EE18EED8
:1008F00018EE18EE18EE18EE18EE18EE18EE18EEC8
:1009000018EE18EE18EE18EE18EE18EE18EE18EEB7
:1009100018EE18EE18EE18EE18EE18EE18EE18EEA7
:1009200018EEF7DEF7DEF7DEF7DEF7DEF7DEF7DEEE
:10093000F7DEF7DEF7DEF7DEF7DEF7DEF7DEF7DE0F
:10094000F7DEF7DEF7DEF7DEF7DEF7DEF7DEF7DEFF
:10095000F7DEF7DEF7DEF7DEF7DEF7DEF7DEF7DEEF
:10096000F7DEF7DEF7DEF7DEF7DEF7DEF7DEF7DEDF
:10097000F7DEF7DEF7DEF7DEF7DEF7DEF7DEF7DECF
:10098000F7DEF7DEF7DEF7DEF7DEF7DEF7DEF7DEBF
:10099000F7DEF7DEF7DEF7DEF7DEF7DEF7DEF7DEAF
:1009A000F7DEF7DEF7DEF7DEF7DEF7DEF7DEF7DE9F
:1009B000F7DEF7DEF7DEF7DEF7DEF7DEF7DEF7DE8F
:1009C000F7DEF7DEF7DEF7DEF7DEF7DE18EE18EE1D
:1009D00018EE18EE18EE18EE18EE18EE18EE18EEE7
:1009E00018EE18EE18EE18EE18EE18EE18EE18EED7
:1009F00018EE18EE18EE18EE18EE18EE18EE18EEC7
:100A000018EE18EE18EE18EE18EE18EE18EE18EEB6
:100A100018EE18EE18EE18EE18EE18EE18EE18EEA6
:100A200018EE18EE18EE18EE18EE18EE18EE18EE96
:100A300018EE18EE18EE18EE18EE18EE18EE18EE86
:100A400018EE18EE18EE18EE18EE18EE18EE18EE76
:100A500018EE18EE18EE18EE18EE18EE18EE18EE66
:100A600018EE18EE18EE18EE18EE18EEF7DEF7DEB8
:100A7000F7DEF7DEF7DEF7DEF7DEF7DEF7DEF7DECE
:100A8000F7DEF7DEF7DEF7DEF7DEF7DEF7DEF7DEBE
:100A9000F7DEF7DEF7DEF7DEF7DEF7DEF7DEF7DEAE
:100AA000F7DEF7DEF7DEF7DEF7DEF7DEF7DEF7DE9E
:100AB000F7DEF7DEF7DEF7DEF7DEF7DEF7DEF7DE8E
:100AC000F7DEF7DEF7DEF7DEF7DEF7DEF7DEF7DE7E
:100AD000F7DEF7DEF7DEF7DEF7DEF7DEF7DEF7DE6E
:100AE000F7DEF7DEF7DEF7DEF7DEF7DEF7DEF7DE5E
:100AF000F7DEF7DEF7DEF7DEF7DEF7DEF7DEF7DE4E
:100B0000F7DEF7DE18EE18EE18EE18EE18EE18EE17
:100B100018EE18EE18EE18EE18EE18EE18EE18EEA5
:100B200018EE18EE18EE18EE18EE18EE18EE18EE95
:100B300018EE18EE18EE18EE18EE18EE18EE18EE85
:100B400018EE18EE18EE18EE18EE18EE18EE18EE75
:100B500018EE18EE18EE18EE18EE18EE18EE18EE65
:100B600018EE18EE18EE18EE18EE18EE18EE18EE55
:100B700018EE18EE18EE18EE18EE18EE18EE18EE45
:100B800018EE18EE18EE18EE18EE18EE18EE18EE35
:100B900018EE18EE18EE18EE18EE18EE18EE18EE25
:100BA00018EE18EE18EE18EE18EE18EE18EE18EE15
:100BB00018EE18EEF7DEF7DEF7DEF7DEF7DEF7DE2B
:100BC000F7DEF7DEF7DEF7DEF7DEF7DEF7DEF7DE7D
:100BD000F7DEF7DEF7DEF7DEF7DEF7DEF7DEF7DE6D
:100BE000F7DEF7DEF7DEF7DEF7DEF7DEF7DEF7DE5D
:100BF000F7DEF7DEF7DEF7DEF7DEF7DEF7DEF7DE4D
:100C0000F7DEF7DEF7DEF7DEF7DEF7DEF7DEF7DE3C
:100C1000F7DEF7DEF7DEF7DEF7DEF7DEF7DEF7DE2C
:100C2000F7DEF7DEF7DEF7DEF7DEF7DEF7DEF7DE1C
:100C3000F7DEF7DEF7DEF7DEF7DEF7DEF7DE18EEDB
:100C400018EE18EE18EE18EE18EE18EE18EE18EE74
:100C500018EE18EE18EE18EE18EE18EE18EE18EE64
:100C600018EE18EE18EE18EE18EE18EE18EE18EE54
:100C700018EE18EE18EE18EE18EE18EE18EE18EE44
:100C800018EE18EE18EE18EE18EE18EE18EE18EE34
:100C900018EE18EE18EE18EE18EE18EE18EE18EE24
:100CA00018EE18EE18EE18EE18EE18EE18EE18EE14
:100CB00018EE18EE18EE18EE18EE18EE18EE18EE04
:100CC00018EE18EE18EE18EE18EE18EE18EE18EEF4
:100CD00018EE18EE18EE18EE18EE18EE18EE18EEE4
:100CE00018EE18EE18EE18EE18EE18EE18EE18EED4
:100CF00018EE18EE18EE18EE18EEF7DEF7DEF7DE57
:100D0000F7DEF7DEF7DEF7DEF7DEF7DEF7DEF7DE3B
:100D1000F7DEF7DEF7DEF7DEF7DEF7DEF7DEF7DE2B
:100D2000F7DEF7DEF7DEF7DEF7DEF7DEF7DEF7DE1B
:100D3000F7DEF7DEF7DEF7DEF7DEF7DEF7DEF7DE0B
:100D4000F7DEF7DEF7DEF7DEF7DEF7DEF7DEF7DEFB
:100D5000F7DEF7DEF7DEF7DEF7DEF7DEF7DEF7DEEB
:100D6000F7DEF7DEF7DEF7DEF7DEF7DEF7DEF7DEDB
:100D7000F7DEF7DEF7DE18EE18EE18EE18EE18EED6
:100D800018EE18EE18EE18EE18EE18EE18EE18EE33
:100D900018EE18EE18EE18EE18EE18EE18EE18EE23
:100DA00018EE18EE18EE18EE18EE18EE18EE18EE13
:100DB00018EE18EE18EE18EE18EE18EE18EE18EE03
:100DC00018EE18EE18EE18EE18EE18EE18EE18EEF3
:100DD00018EE18EE18EE18EE18EE18EE18EE18EEE3
:100DE00018EE18EE18EE18EE18EE18EE18EE18EED3
:100DF00018EE18EE18EE18EE18EE18EE18EE18EEC3
:100E000018EE18EE18EE18EE18EE18EE18EE18EEB2
:100E100018EE18EE18EE18EE18EE18EE18EE18EEA2
:100E200018EE18EE18EE18EE18EE18EE18EE18EE92
:100E300018EE18EE18EE18EE18EE18EE18EE18EE82
:100E400018EEF7DEF7DEF7DEF7DEF7DEF7DEF7DEC9
:100E5000F7DEF7DEF7DEF7DEF7DEF7DEF7DEF7DEEA
:100E6000F7DEF7DEF7DEF7DEF7DEF7DEF7DEF7DEDA
:100E7000F7DEF7DEF7DEF7DEF7DEF7DEF7DEF7DECA
:100E8000F7DEF7DEF7DEF7DEF7DEF7DEF7DEF7DEBA
:100E9000F7DEF7DEF7DEF7DEF7DEF7DEF7DEF7DEAA
:100EA000F7DEF7DEF7DEF7DEF7DEF7DEF7DEF7DE9A
:100EB00018EE18EE18EE18EE18EE18EE18EE18EE02
:100EC00018EE18EE18EE18EE18EE18EE18EE18EEF2
:100ED00018EE18EE18EE18EE18EE18EE18EE18EEE2
:100EE00018EE18EE18EE18EE18EE18EE18EE18EED2
:100EF00018EE18EE18EEF800F800F800F800F80008
:100F0000F800F800F800F800F800F800F800F80021
:100F1000F800F800F800F800F800F800F800F80011
:100F2000F800F800F800F800F800F800F800F80001
:100F3000F800F800F800F800F800F800F80018EEE3
:100F400018EE18EE18EE18EE18EE18EE18EE18EE71
:100F500018EE18EE18EE18EE18EE18EE18EE18EE61
:100F600018EE18EE18EE18EE18EE18EE18EE18EE51
:100F700018EE18EE18EE18EE18EE18EE18EE18EE41
:100F800018EE18EE18EE18EEF7DEF7DEF7DEF7DEF5
:100F9000F7DEF7DEF7DEF7DEF7DEF7DEF7DEF7DEA9
:100FA000F7DEF7DEF7DEF7DEF7DEF7DEF7DEF7DE99
:100FB000F7DEF7DEF7DEF7DEF7DEF7DEF7DEF7DE89
:100FC000F7DEF7DEF7DEF7DEF7DEF7DEF7DEF7DE79
:100FD000F7DEF7DEF7DEF7DEF7DEF7DEF7DEF7DE69
:100FE000F7DEF7DEF7DEF7DEF7DEF7DE18EE18EEF7
:100FF00018EE18EE18EE18EE18EE18EE18EE18EEC1
:1010000018EE18EE18EE18EE18EE18EE18EE18EEB0
:1010100018EE18EE18EE18EE18EE18EE18EE18EEA0
:1010200018EE18EEF800F800F800F800F800F800E4
:10103000F800F800F800F800F800F800F800F800F0
:10104000F800F800F800F800F800F800F800F800E0
:10105000F800F800F800F800F800F800F800F800D0
:10106000F800F800F800F800F800F800F800F800C0
:10107000F800F800F800F800F800F800F800F800B0
:10108000F800F800F800F800F800F800F800F800A0
:10109000F80018EE18EE18EE18EE18EE18EE18EE2E
:1010A00018EE18EE18EE18EE18EE18EE18EE18EE10
:1010B00018EE18EE18EE18EE18EE18EE18EE18EE00
:1010C00018EE18EE18EE18EE18EE18EEF7DEF7DE52
:1010D000F7DEF7DEF7DEF7DEF7DEF7DEF7DEF7DE68
:1010E000F7DEF7DEF7DEF7DEF7DEF7DEF7DEF7DE58
:1010F000F7DEF7DEF7DEF7DEF7DEF7DEF7DEF7DE48
:10110000F7DEF7DEF7DEF7DEF7DEF7DEF7DEF7DE37
:10111000F7DEF7DEF7DEF7DEF7DEF7DEF7DEF7DE27
:10112000F7DEF7DEF7DE18EE18EE18EE18EE18EE22
:1011300018EE18EE18EE18EE18EE18EE18EE18EE7F
:1011400018EE18EE18EE18EE18EE18EE18EE18EE6F
:1011500018EE18EE18EE18EEF800F800F800F80097
:10116000F800F800F800F800F800F800F800F800BF
:10117000F800F800F800F800F800F800F800F800AF
:10118000F800F80018EE18EE18EE18EE18EE18EE4B
:1011900018EE18EE18EE18EE18EE18EE18EE18EE1F
:1011A00018EE18EE18EE18EE18EE18EE18EE18EE0F
:1011B00018EE18EE18EE18EEF800F800F800F80037
:1011C000F800F800F800F800F800F800F800F8005F
:1011D000F800F800F800F800F800F800F80018EE41
:1011E00018EE18EE18EE18EE18EE18EE18EE18EECF
:1011F00018EE18EE18EE18EE18EE18EE18EE18EEBF
:1012000018EE18EE18EE18EE18EE18EE18EE18EEAE
:1012100018EEF7DEF7DEF7DEF7DEF7DEF7DEF7DEF5
:10122000F7DEF7DEF7DEF7DEF7DEF7DEF7DEF7DE16
:10123000F7DEF7DEF7DEF7DEF7DEF7DEF7DEF7DE06
:10124000F7DEF7DEF7DEF7DEF7DEF7DEF7DEF7DEF6
:10125000F7DEF7DEF7DEF7DEF7DEF7DEF7DEF7DEE6
:10126000F7DE18EE18EE18EE18EE18EE18EE18EE7F
:1012700018EE18EE18EE18EE18EE18EE18EE18EE3E
:1012800018EE18EE18EE18EE18EE18EEF800F8004A
:10129000F800F800F800F800F800F800F800F8008E
:1012A000F800F800F800F800F800F800F800F8007E
:1012B00018EE18EE18EE18EE18EE18EE18EE18EEFE
:1012C00018EE18EE18EE18EE18EE18EE18EE18EEEE
:1012D00018EE18EE18EE18EE18EE18EE18EE18EEDE
:1012E00018EE18EE18EE18EE18EE18EE18EE18EECE
:1012F00018EE18EE18EE18EE18EE18EE18EE18EEBE
:1013000018EE18EE18EE18EE18EE18EEF800F800C9
:10131000F800F800F800F800F800F800F800F8000D
:10132000F800F800F800F80018EE18EE18EE18EEC5
:1013300018EE18EE18EE18EE18EE18EE18EE18EE7D
:1013400018EE18EE18EE18EE18EE18EE18EE18EE6D
:1013500018EE18EE18EEF7DEF7DEF7DEF7DEF7DE52
:10136000F7DEF7DEF7DEF7DEF7DEF7DEF7DEF7DED5
:10137000F7DEF7DEF7DEF7DEF7DEF7DEF7DEF7DEC5
:10138000F7DEF7DEF7DEF7DEF7DEF7DEF7DEF7DEB5
:10139000F7DEF7DEF7DEF7DEF7DEF7DEF7DE18EE74
:1013A00018EE18EE18EE18EE18EE18EE18EE18EE0D
:1013B00018EE18EE18EE18EE18EE18EE18EE18EEFD
:1013C00018EE18EEF800F800F800F800F800F80041
:1013D000F800F800F800F800F800F800F800F8004D
:1013E000F80018EE18EE18EE18EE18EE18EE18EEDB
:1013F00018EE18EE18EE18EE18EE18EE18EE18EEBD
:1014000018EE18EE18EE18EE18EE18EE18EE18EEAC
:1014100018EE18EE18EE18EE18EE18EE18EE18EE9C
:1014200018EE18EE18EE18EE18EE18EE18EE18EE8C
:1014300018EE18EE18EE18EE18EE18EE18EE18EE7C
:1014400018EE18EE18EE18EE18EE18EE18EE18EE6C
:1014500018EE18EE18EE18EEF800F800F800F80094
:10146000F800F800F800F800F800F800F800F800BC
:1014700018EE18EE18EE18EE18EE18EE18EE18EE3C
:1014800018EE18EE18EE18EE18EE18EE18EE18EE2C
:1014900018EE18EE18EE18EE18EEF7DEF7DEF7DEAF
:1014A000F7DEF7DEF7DEF7DEF7DEF7DEF7DEF7DE94
:1014B000F7DEF7DEF7DEF7DEF7DEF7DEF7DEF7DE84
:1014C000F7DEF7DEF7DEF7DEF7DEF7DEF7DEF7DE74
:1014D000F7DEF7DEF7DEF7DEF7DE18EE18EE18EED1
:1014E00018EE18EE18EE18EE18EE18EE18EE18EECC
:1014F00018EE18EE18EE18EE18EE18EEF800F800D8
:10150000F800F800F800F800F800F800F800F8001B
:10151000F800F800F800F80018EE18EE18EE18EED3
:1015200018EE18EE18EE18EE18EE18EE18EE18EE8B
:1015300018EE18EE18EE18EE18EE18EE18EE18EE7B
:1015400018EE18EE18EE18EE18EE18EE18EE18EE6B
:1015500018EE18EE18EE18EE18EE18EE18EE18EE5B
:1015600018EE18EE18EE18EE18EE18EE18EE18EE4B
:1015700018EE18EE18EE18EE18EE18EE18EE18EE3B
:1015800018EE18EE18EE18EE18EE18EE18EE18EE2B
:1015900018EE18EE18EE18EE18EE18EE18EE18EE1B
:1015A00018EE18EEF800F800F800F800F800F8005F
:1015B000F800F800F800F80018EE18EE18EE18EE33
:1015C00018EE18EE18EE18EE18EE18EE18EE18EEEB
:1015D00018EE18EE18EE18EE18EE18EE18EEF7DE0C
:1015E000F7DEF7DEF7DEF7DEF7DEF7DEF7DEF7DE53
:1015F000F7DEF7DEF7DEF7DEF7DEF7DEF7DEF7DE43
:10160000F7DEF7DEF7DEF7DEF7DEF7DEF7DEF7DE32
:10161000F7DEF7DEF7DEF7DE18EE18EE18EE18EE5E
:1016200018EE18EE18EE18EE18EE18EE18EE18EE8A
:1016300018EE18EE18EE18EEF800F800F800F800B2
:10164000F800F800F800F800F800F800F800F800DA
:1016500018EE18EE18EE18EE18EE18EE18EE18EE5A
:1016600018EE18EE18EE18EE18EE18EE18EE18EE4A
:1016700018EE18EE18EE18EE18EE18EE18EE18EE3A
:1016800018EE18EE18EE18EE18EE18EE18EE18EE2A
:1016900018EE18EE18EE18EE18EE18EE18EE18EE1A
:1016A00018EE18EE18EE18EE18EE18EE18EE18EE0A
:1016B00018EE18EE18EE18EE18EE18EE18EE18EEFA
:1016C00018EE18EE18EE18EE18EE18EE18EE18EEEA
:1016D00018EE18EE18EE18EE18EE18EE18EE18EEDA
:1016E00018EE18EE18EE18EE18EE18EEF800F800E6
:1016F000F800F800F800F800F800F800F80018EE1C
:1017000018EE18EE18EE18EE18EE18EE18EE18EEA9
:1017100018EE18EE18EE18EE18EE18EE18EE18EE99
:10172000F7DEF7DEF7DEF7DEF7DEF7DEF7DEF7DE11
:10173000F7DEF7DEF7DEF7DEF7DEF7DEF7DEF7DE01
:10174000F7DEF7DEF7DEF7DEF7DEF7DEF7DEF7DEF1
:10175000F7DEF7DE18EE18EE18EE18EE18EE18EEBB
:1017600018EE18EE18EE18EE18EE18EE18EE18EE49
:1017700018EEF800F800F800F800F800F800F8009B
:10178000F800F800F800F80018EE18EE18EE18EE61
:1017900018EE18EE18EE18EE18EE18EE18EE18EE19
:1017A00018EE18EE18EE18EE18EE18EE18EE18EE09
:1017B00018EE18EE18EE18EE18EE18EE18EE18EEF9
:1017C00018EE18EE18EE18EE18EE18EE18EE18EEE9
:1017D00018EE18EE18EE18EE18EE18EE18EE18EED9
:1017E00018EE18EE18EE18EE18EE18EE18EE18EEC9
:1017F00018EE18EE18EE18EE18EE18EE18EE18EEB9
:1018000018EE18EE18EE18EE18EE18EE18EE18EEA8
:1018100018EE18EE18EE18EE18EE18EE18EE18EE98
:1018200018EE18EE18EE18EE18EE18EE18EE18EE88
:1018300018EEF800F800F800F800F800F800F800DA
:10184000F80018EE18EE18EE18EE18EE18EE18EE76
:1018500018EE18EE18EE18EE18EE18EE18EE18EE58
:1018600018EE18EEF7DEF7DEF7DEF7DEF7DEF7DE6E
:10187000F7DEF7DEF7DEF7DEF7DEF7DEF7DEF7DEC0
:10188000F7DEF7DEF7DEF7DEF7DEF7DEF7DEF7DEB0
:10189000F7DE18EE18EE18EE18EE18EE18EE18EE49
:1018A00018EE18EE18EE18EE18EE18EEF800F80024
:1018B000F800F800F800F800F800F800F800F80068
:1018C000F80018EE18EE18EE18EE18EE18EE18EEF6
:1018D00018EE18EE18EE18EE18EE18EE18EE18EED8
:1018E00018EE18EE18EE18EE18EE18EE18EE18EEC8
:1018F00018EE18EE18EE18EE18EE18EE18EE18EEB8
:1019000018EE18EE18EE18EE18EE18EE18EE18EEA7
:1019100018EE18EE18EE18EE18EE18EE18EE18EE97
:1019200018EE18EE18EE18EE18EE18EE18EE18EE87
:1019300018EE18EE18EE18EE18EE18EE18EE18EE77
:1019400018EE18EE18EE18EE18EE18EE18EE18EE67
:1019500018EE18EE18EE18EE18EE18EE18EE18EE57
:1019600018EE18EE18EE18EE18EE18EE18EE18EE47
:1019700018EE18EE18EE18EEF800F800F800F8006F
:10198000F800F800F800F80018EE18EE18EE18EE5F
:1019900018EE18EE18EE18EE18EE18EE18EE18EE17
:1019A00018EE18EE18EEF7DEF7DEF7DEF7DEF7DEFC
:1019B000F7DEF7DEF7DEF7DEF7DEF7DEF7DEF7DE7F
:1019C000F7DEF7DEF7DEF7DEF7DEF7DEF7DE18EE3E
:1019D00018EE18EE18EE18EE18EE18EE18EE18EED7
:1019E00018EE18EE18EE18EE18EEF800F800F800F1
:1019F000F800F800F800F800F800F800F80018EE19
:101A000018EE18EE18EE18EE18EE18EE18EE18EEA6
:101A100018EE18EE18EE18EE18EE18EE18EE18EE96
:101A200018EE18EE18EE18EE18EE18EE18EE18EE86
:101A300018EE18EE18EE18EE18EE18EE18EE18EE76
:101A400018EE18EE18EE18EE18EE18EE18EE18EE66
:101A500018EE18EE18EE18EE18EE18EE18EE18EE56
:101A600018EE18EE18EE18EE18EE18EE18EE18EE46
:101A700018EE18EE18EE18EE18EE18EE18EE18EE36
:101A800018EE18EE18EE18EE18EE18EE18EE18EE26
:101A900018EE18EE18EE18EE18EE18EE18EE18EE16
:101AA00018EE18EE18EE18EE18EE18EE18EE18EE06
:101AB00018EE18EE18EE18EE18EE18EE18EEF80004
:101AC000F800F800F800F800F800F80018EE18EE3A
:101AD00018EE18EE18EE18EE18EE18EE18EE18EED6
:101AE00018EE18EE18EE18EE18EEF7DEF7DEF7DE59
:101AF000F7DEF7DEF7DEF7DEF7DEF7DEF7DEF7DE3E
:101B0000F7DEF7DEF7DEF7DEF7DEF7DE18EE18EECB
:101B100018EE18EE18EE18EE18EE18EE18EE18EE95
:101B200018EE18EE18EEF800F800F800F800F800CB
:101B3000F800F800F800F80018EE18EE18EE18EEAD
:101B400018EE18EE18EE18EE18EE18EE18EE18EE65
:101B500018EE18EE18EE18EE18EE18EE18EE18EE55
:101B600018EE18EE18EE18EE18EE18EE18EE18EE45
:101B700018EE18EE18EE18EE18EE18EE18EE18EE35
:101B800018EE18EE18EE18EE18EE18EE18EE18EE25
:101B900018EE18EE18EE18EE18EE18EE18EE18EE15
:101BA00018EE18EE18EE18EE18EE18EE18EE18EE05
:101BB00018EE18EE18EE18EE18EE18EE18EE18EEF5
:101BC00018EE18EE18EE18EE18EE18EE18EE18EEE5
:101BD00018EE18EE18EE18EE18EE18EE18EE18EED5
:101BE00018EE18EE18EE18EE18EE18EE18EE18EEC5
:101BF00018EE18EE18EE18EE18EE18EE18EE18EEB5
:101C000018EE18EEF800F800F800F800F800F800F8
:101C100018EE18EE18EE18EE18EE18EE18EEF7DEC5
:101C2000F7DEF7DE18EE18EE18EE18EEF7DEF7DE48
:101C3000F7DEF7DEF7DEF7DEF7DEF7DEF7DEF7DEFC
:101C4000F7DEF7DEF7DEF7DEF7DE18EE18EE18EE59
:101C500018EE18EE18EE18EE18EE18EE18EE18EE54
:101C6000F7DEF7DEF7DEF7DEF7DEF7DEF7DEF7DECC
:101C7000F7DEF7DE18EE18EE18EE18EEF7DEF7DEF8
:101C8000F7DEF7DEF7DEF7DEF7DEF7DEF7DEF7DEAC
:101C9000F7DE18EE18EEF7DEF7DEF7DEF7DE18EE09
:101CA00018EE18EE18EEF7DEF7DEF7DEF7DE18EEC8
:101CB00018EE18EEF7DEF7DEF7DEF7DEF7DEF7DE1A
:101CC000F7DEF7DEF7DE18EE18EEF7DEF7DEF7DE0A
:101CD000F7DE18EE18EE18EE18EEF7DEF7DEF7DE98
:101CE000F7DEF7DE18EE18EE18EE18EEF7DEF7DE88
:101CF000F7DEF7DE18EE18EE18EE18EEF7DEF7DE78
:101D0000F7DEF7DEF7DE18EE18EE18EE18EE18EE36
:101D100018EE18EEF7DEF7DEF7DEF7DEF7DE18EE88
:101D200018EE18EE18EEF7DEF7DEF7DEF7DEF7DE78
:101D3000F7DEF7DEF7DEF7DEF7DE18EE18EE18EE68
:101D4000F7DEF7DEF7DEF7DEF7DEF800F800F80082
:101D5000F7DEF7DEF7DEF7DEF7DE18EEF7DEF7DEAA
:101D6000F7DEF7DEF7DE18EE18EE18EE18EEF7DE07
:101D7000F7DEF7DEF7DEF7DEF7DEF7DEF7DEF7DEBB
:101D8000F7DEF7DEF7DEF7DE18EE18EE18EE18EEE7
:101D900018EE18EE18EE18EE18EE18EE18EE18EE13
:101DA000F7DEF7DEF7DEF7DEF7DEF7DEF7DEF7DE8B
:101DB000F7DEF7DEF7DE18EE18EE18EEF7DEF7DEE8
:101DC000F7DEF7DEF7DEF7DEF7DEF7DEF7DEF7DE6B
:101DD00018EE18EE18EEF7DEF7DEF7DEF7DEF7DEC8
:101DE00018EE18EE18EE18EEF7DEF7DEF7DE18EE56
:101DF00018EEF7DEF7DEF7DEF7DEF7DEF7DEF7DE0A
:101E0000F7DEF7DE18EE18EE18EEF7DEF7DEF7DE97
:101E1000F7DE18EE18EE18EE18EE18EEF7DEF7DE25
:101E2000F7DE18EE18EE18EE18EE18EEF7DEF7DE15
:101E3000F7DEF7DE18EE18EE18EE18EEF7DEF7DE36
:101E4000F7DEF7DEF7DE18EE18EE18EE18EE18EEF5
:101E500018EE18EEF7DEF7DEF7DEF7DEF7DEF7DE78
:101E600018EE18EE18EEF7DEF7DEF7DEF7DEF7DE37
:101E7000F7DEF7DEF7DEF7DEF7DEF7DE18EE18EE58
:101E800018EEF7DEF7DEF7DEF7DEF800F800F80010
:101E9000F7DEF7DEF7DEF7DE18EE18EEF7DEF7DE38
:101EA000F7DEF7DEF7DEF7DE18EE18EE18EE18EEC6
:101EB000F7DEF7DEF7DEF7DEF7DEF7DEF7DEF7DE7A
:101EC000F7DEF7DEF7DEF7DE18EE18EE18EE18EEA6
:101ED00018EE18EE18EE18EE18EE18EEF800F800EE
:101EE000F7DEF7DEF7DEF7DEF7DEF7DEF7DEF7DE4A
:101EF000F7DEF7DEF7DE18EE18EE18EEF7DEF7DEA7
:101F0000F7DEF7DEF7DEF7DEF7DEF7DEF7DEF7DE29
:101F100018EE18EE18EEF7DEF7DEF7DEF7DEF7DE86
:101F200018EE18EE18EE18EEF7DEF7DEF7DE18EE14
:101F300018EEF7DEF7DEF7DEF7DEF7DEF7DEF7DEC8
:101F4000F7DEF7DE18EE18EE18EEF7DEF7DEF7DE56
:101F5000F7DE18EE18EE18EE18EE18EEF7DEF7DEE4
:101F6000F7DE18EE18EE18EE18EE18EEF7DEF7DED4
:101F7000F7DEF7DE18EE18EE18EE18EEF7DEF7DEF5
:101F8000F7DEF7DEF7DE18EE18EE18EE18EE18EEB4
:101F900018EEF7DEF7DEF7DEF7DEF7DEF7DEF7DE68
:101FA00018EE18EE18EEF7DEF7DEF7DEF7DEF7DEF6
:101FB000F7DEF7DEF7DEF7DEF7DEF7DE18EE18EE17
:101FC00018EEF7DEF7DEF7DE18EE18EE18EEF7DEA5
:101FD000F7DEF7DEF7DEF80018EE18EEF7DEF7DED4
:101FE000F7DEF7DEF7DE18EE18EE18EE18EE18EE54
:101FF000F7DEF7DEF7DEF7DEF7DEF7DEF7DEF7DE39
:10200000F7DEF7DEF7DE18EE18EE18EE18EE18EE33
:1020100018EE18EE18EE18EE18EEF800F800F800BA
:10202000F7DEF7DEF7DEF7DEF80018EE18EE18EE52
:10203000F7DEF7DEF7DE18EE18EE18EEF7DEF7DE65
:10204000F7DEF7DE18EE18EE18EE18EE18EE18EEC2
:1020500018EE18EE18EEF7DEF7DEF7DEF7DEF7DE45
:1020600018EE18EE18EEF7DEF7DEF7DE18EE18EED3
:10207000F7DEF7DEF7DEF7DEF7DEF7DEF7DEF7DEB8
:10208000F7DEF7DE18EE18EE18EEF7DEF7DEF7DE15
:1020900018EE18EE18EE18EE18EEF7DEF7DEF7DEA3
:1020A000F7DE18EE18EE18EE18EEF7DEF7DEF7DEC4
:1020B000F7DEF7DE18EE18EE18EE18EEF7DEF7DEB4
:1020C000F7DEF7DEF7DE18EE18EE18EE18EE18EE73
:1020D00018EEF7DEF7DEF7DEF7DEF7DEF7DEF7DE27
:1020E00018EE18EE18EEF7DEF7DEF7DEF7DE18EE84
:1020F00018EE18EEF7DEF7DEF7DEF7DE18EE18EE74
:10210000F7DEF7DEF7DEF7DE18EE18EEF7DEF7DEC5
:10211000F7DEF7DEF800F800F80018EE18EEF7DE4C
:10212000F7DEF7DEF7DE18EE18EE18EE18EE18EE12
:1021300018EEF7DEF7DEF7DEF7DEF7DEF7DEF7DEC6
:10214000F7DEF7DE18EE18EE18EE18EE18EE18EEC1
:1021500018EE18EE18EE18EEF800F800F800F80087
:10216000F7DEF7DEF7DEF80018EE18EE18EE18EEE0
:10217000F7DEF7DEF7DE18EE18EE18EEF7DEF7DE24
:10218000F7DE18EE18EE18EE18EE18EE18EE18EE50
:1021900018EE18EE18EEF7DEF7DEF7DEF7DEF7DE04
:1021A000F7DE18EE18EEF7DEF7DEF7DE18EE18EEC3
:1021B000F7DEF7DEF7DEF7DE18EE18EE18EE18EEB3
:1021C00018EE18EE18EE18EEF7DEF7DEF7DEF7DEA3
:1021D00018EE18EE18EE18EE18EEF7DEF7DEF7DE62
:1021E000F7DE18EE18EE18EE18EEF7DEF7DEF7DE83
:1021F000F7DEF7DE18EE18EE18EEF7DEF7DEF7DEA4
:10220000F7DEF7DEF7DE18EE18EE18EE18EE18EE31
:10221000F7DEF7DEF7DEF7DEF7DEF7DEF7DEF7DE16
:1022200018EE18EE18EEF7DEF7DEF7DE18EE18EE11
:1022300018EE18EE18EEF7DEF7DEF7DE18EE18EE01
:10224000F7DEF7DEF7DEF7DE18EEF7DEF7DEF7DEB5
:10225000F7DEF800F800F800F800F80018EE18EEC5
:10226000F7DE18EE18EE18EE18EE18EE18EE18EE6F
:1022700018EE18EEF7DEF7DEF7DEF7DEF7DEF7DE54
:10228000F7DEF7DE18EE18EE18EE18EE18EE18EE80
:1022900018EE18EE18EE18EEF800F800F800F80046
:1022A000F7DEF7DEF7DE18EE18EE18EE18EE18EE91
:1022B000F7DEF7DEF7DE18EE18EE18EEF7DEF7DEE3
:1022C000F7DE18EE18EE18EE18EE18EE18EE18EE0F
:1022D00018EE18EEF7DEF7DEF7DEF7DEF7DEF7DEF4
:1022E000F7DE18EE18EEF7DEF7DEF7DE18EE18EE82
:1022F000F7DEF7DEF7DEF7DE18EE18EE18EE18EE72
:1023000018EE18EE18EE18EEF7DEF7DEF7DEF7DE61
:1023100018EE18EE18EE18EE18EEF7DEF7DEF7DE20
:10232000F7DE18EE18EE18EE18EEF7DEF7DEF7DE41
:10233000F7DEF7DE18EE18EE18EEF7DEF7DEF7DE62
:10234000F7DEF7DEF7DE18EE18EE18EE18EE18EEF0
:10235000F7DEF7DEF7DE18EEF7DEF7DEF7DEF7DEA4
:1023600018EE18EEF7DEF7DEF7DEF7DE18EE18EE01
:1023700018EE18EE18EEF7DEF7DEF7DE18EE18EEC0
:10238000F7DEF7DEF7DEF7DEF7DEF7DEF7DEF7DEA5
:1023900018EE18EEF800F800F800F800F80018EE53
:1023A00018EE18EE18EE18EE18EE18EE18EE18EEFD
:1023B00018EE18EEF7DEF7DEF7DEF7DEF7DEF7DE13
:1023C000F7DE18EE18EE18EE18EE18EE18EE18EE0E
:1023D00018EE18EE18EEF800F800F800F800F7DE36
:1023E000F7DEF7DEF7DE18EE18EE18EE18EEF7DE81
:1023F000F7DEF7DEF7DE18EE18EEF7DEF7DEF7DED3
:10240000F7DE18EE18EE18EE18EE18EE18EE18EECD
:1024100018EE18EEF7DEF7DEF7DEF7DEF7DEF7DEB2
:10242000F7DE18EE18EEF7DEF7DEF7DE18EE18EE40
:10243000F7DEF7DEF7DE18EE18EE18EE18EE18EEFF
:1024400018EE18EE18EE18EEF7DEF7DEF7DEF7DE20
:1024500018EE18EE18EE18EE18EEF7DEF7DEF7DEDF
:1024600018EE18EE18EE18EEF7DEF7DEF7DE18EECF
:10247000F7DEF7DEF7DE18EEF7DEF7DEF7DEF7DE83
:10248000F7DEF7DEF7DE18EE18EE18EE18EEF7DEE0
:10249000F7DEF7DEF7DE18EEF7DEF7DEF7DEF7DE63
:1024A00018EE18EEF7DEF7DEF7DEF7DE18EE18EEC0
:1024B00018EE18EEF7DEF7DEF7DEF7DE18EE18EEB0
:1024C000F7DEF7DEF7DEF7DEF7DEF7DEF7DEF7DE64
:1024D00018EE18EE18EEF800F800F800F80018EE04
:1024E00018EE18EE18EE18EE18EE18EE18EE18EEBC
:1024F00018EE18EE18EEF7DEF7DEF7DEF7DEF7DEA1
:10250000F7DE18EE18EE18EE18EE18EE18EE18EECC
:1025100018EE18EE18EEF800F800F800F800F7DEF4
:10252000F7DEF7DEF7DEF7DEF7DEF7DEF7DEF7DE03
:10253000F7DEF7DE18EE18EE18EEF7DEF7DEF7DE60
:10254000F7DEF7DEF7DEF7DEF7DEF7DEF7DE18EEB2
:1025500018EE18EEF7DEF7DEF7DEF7DEF7DEF7DE71
:10256000F7DEF7DEF7DEF7DEF7DEF7DE18EEF7DE92
:10257000F7DEF7DEF7DE18EE18EE18EE18EE18EEBE
:1025800018EE18EE18EE18EEF7DEF7DEF7DEF7DEDF
:10259000F7DEF7DEF7DEF7DEF7DEF7DEF7DEF7DE93
:1025A00018EE18EE18EE18EEF7DEF7DEF7DE18EE8E
:1025B000F7DEF7DEF7DE18EEF7DEF7DEF7DEF7DE42
:1025C000F7DEF7DEF7DE18EE18EE18EE18EEF7DE9F
:1025D000F7DEF7DE18EE18EEF7DEF7DEF7DEF7DEF1
:1025E00018EE18EEF7DEF7DEF7DEF7DE18EE18EE7F
:1025F00018EE18EEF7DEF7DEF7DEF7DE18EE18EE6F
:10260000F7DEF7DEF7DEF7DEF7DEF7DEF7DEF7DE22
:1026100018EE18EE18EEF800F800F800F800F800D0
:1026200018EE18EE18EE18EE18EE18EE18EE18EE7A
:1026300018EE18EE18EEF7DEF7DEF7DEF7DEF7DE5F
:10264000F7DE18EE18EE18EE18EE18EE18EE18EE8B
:1026500018EE18EE18EEF800F800F800F800F7DEB3
:10266000F7DEF7DEF7DEF7DEF7DEF7DEF7DEF7DEC2
:10267000F7DE18EE18EE18EE18EEF7DEF7DEF7DEEE
:10268000F7DEF7DEF7DEF7DEF7DEF7DE18EE18EE40
:1026900018EE18EEF7DEF7DEF7DE18EEF7DEF7DEFF
:1026A000F7DEF7DEF7DEF7DEF7DE18EE18EEF7DE20
:1026B000F7DEF7DEF7DE18EE18EE18EE18EE18EE7D
:1026C00018EE18EE18EE18EEF7DEF7DEF7DEF7DE9E
:1026D000F7DEF7DEF7DEF7DEF7DEF7DEF7DEF7DE52
:1026E00018EE18EE18EE18EEF7DEF7DEF7DE18EE4D
:1026F000F7DEF7DEF7DE18EEF7DEF7DEF7DEF7DE01
:10270000F7DEF7DEF7DE18EE18EE18EEF7DEF7DE8E
:10271000F7DEF7DE18EE18EEF7DEF7DEF7DEF7DEAF
:1027200018EE18EEF7DEF7DEF7DEF7DEF7DEF7DE9F
:10273000F7DEF7DEF7DEF7DEF7DE18EE18EEF7DE8F
:10274000F7DEF7DEF7DEF7DEF7DEF7DEF7DEF7DEE1
:1027500018EE18EE18EE18EEF800F800F800F80081
:1027600018EE18EE18EE18EE18EE18EE18EE18EE39
:1027700018EE18EE18EEF7DEF7DEF7DEF7DEF7DE1E
:10278000F7DE18EE18EE18EE18EE18EE18EE18EE4A
:1027900018EE18EEF800F800F800F800F800F7DE80
:1027A000F7DEF7DEF7DEF7DEF7DEF7DEF7DEF7DE81
:1027B000F7DEF7DE18EE18EE18EEF7DEF7DEF7DEDE
:1027C000F7DEF7DEF7DEF7DEF7DEF7DE18EE18EEFF
:1027D00018EE18EEF7DEF7DEF7DE18EEF7DEF7DEBE
:1027E000F7DEF7DEF7DEF7DEF7DE18EE18EEF7DEDF
:1027F000F7DEF7DEF7DE18EE18EE18EE18EE18EE3C
:1028000018EE18EE18EEF7DEF7DEF7DEF7DEF7DE8D
:10281000F7DEF7DEF7DEF7DEF7DEF7DEF7DEF7DE10
:1028200018EE18EE18EEF7DEF7DEF7DEF7DE18EE3C
:10283000F7DEF7DEF7DEF7DEF7DEF7DE18EEF7DEBF
:10284000F7DEF7DEF7DE18EE18EE18EEF7DEF7DE4D
:10285000F7DE18EE18EE18EEF7DEF7DEF7DEF7DE3D
:1028600018EE18EEF7DEF7DEF7DEF7DEF7DEF7DE5E
:10287000F7DEF7DEF7DEF7DEF7DE18EE18EEF7DE4E
:10288000F7DEF7DEF7DEF7DEF7DEF7DEF7DEF7DEA0
:1028900018EE18EE18EE18EEF800F800F800F80040
:1028A00018EE18EE18EE18EE18EE18EE18EE18EEF8
:1028B00018EE18EE18EEF7DEF7DEF7DEF7DEF7DEDD
:1028C000F7DE18EE18EE18EE18EE18EE18EE18EE09
:1028D00018EE18EE18EEF800F800F800F7DEF7DE54
:1028E000F7DEF7DE18EE18EE18EE18EEF7DEF7DE7C
:1028F000F7DEF7DE18EE18EE18EEF7DEF7DEF7DE9D
:1029000018EE18EE18EE18EE18EE18EE18EE18EE97
:1029100018EEF7DEF7DEF7DEF7DE18EEF7DEF7DEAD
:10292000F7DEF7DEF7DEF7DEF7DE18EE18EEF7DE9D
:10293000F7DEF7DE18EE18EE18EE18EE18EE18EEC9
:1029400018EE18EE18EEF7DEF7DEF7DEF7DE18EE1B
:1029500018EE18EE18EE18EEF7DEF7DEF7DEF7DE0B
:1029600018EE18EE18EEF7DEF7DEF7DE18EE18EECA
:10297000F7DEF7DEF7DEF7DEF7DEF7DE18EEF7DE7E
:10298000F7DEF7DEF7DE18EE18EEF7DEF7DEF7DE3D
:10299000F7DE18EE18EE18EEF7DEF7DEF7DEF7DEFC
:1029A00018EEF7DEF7DEF7DEF7DEF7DEF7DEF7DE4E
:1029B000F7DEF7DEF7DE18EE18EE18EE18EEF7DEAB
:1029C000F7DEF7DEF7DE18EE18EEF7DEF7DEF7DEFD
:1029D00018EE18EE18EE18EEF800F800F800F800FF
:1029E00018EE18EE18EE18EE18EE18EE18EE18EEB7
:1029F00018EE18EE18EEF7DEF7DEF7DEF7DEF7DE9C
:102A0000F7DE18EE18EE18EE18EE18EE18EE18EEC7
:102A100018EE18EE18EEF800F800F800F7DEF7DE12
:102A2000F7DEF7DE18EE18EE18EE18EEF7DEF7DE3A
:102A3000F7DEF7DE18EE18EEF7DEF7DEF7DEF7DE8C
:102A400018EE18EE18EE18EE18EE18EE18EE18EE56
:102A500018EEF7DEF7DEF7DEF7DE18EE18EEF7DE3B
:102A6000F7DEF7DEF7DEF7DEF7DE18EE18EEF7DE5C
:102A7000F7DEF7DE18EE18EE18EE18EE18EE18EE88
:102A800018EE18EE18EEF7DEF7DEF7DEF7DE18EEDA
:102A900018EE18EE18EE18EEF7DEF7DEF7DE18EE99
:102AA00018EE18EE18EEF7DEF7DEF7DE18EE18EE89
:102AB000F7DEF7DEF7DEF7DEF7DE18EE18EEF7DE0C
:102AC000F7DEF7DEF7DE18EE18EEF7DEF7DEF7DEFC
:102AD000F7DEF7DEF7DEF7DEF7DEF7DEF7DEF7DE4E
:102AE00018EEF7DEF7DEF7DEF7DE18EE18EEF7DEAB
:102AF000F7DEF7DE18EE18EE18EE18EE18EEF7DE39
:102B0000F7DEF7DE18EE18EE18EEF7DEF7DEF7DE8A
:102B1000F7DE18EE18EEF800F800F800F80018EEEE
:102B200018EE18EE18EE18EE18EE18EE18EE18EE75
:102B300018EE18EE18EEF7DEF7DEF7DEF7DEF7DE5A
:102B4000F7DE18EE18EE18EE18EE18EE18EE18EE86
:102B500018EE18EE18EEF800F800F800F7DEF7DED1
:102B6000F7DEF7DE18EE18EE18EE18EEF7DEF7DEF9
:102B7000F7DEF7DE18EE18EEF7DEF7DEF7DEF7DE4B
:102B800018EE18EE18EE18EE18EE18EE18EE18EE15
:102B900018EEF7DEF7DEF7DE18EE18EE18EEF7DEC9
:102BA000F7DEF7DEF7DEF7DEF7DE18EEF7DEF7DE4C
:102BB000F7DEF7DE18EE18EE18EE18EE18EE18EE47
:102BC00018EE18EE18EEF7DEF7DEF7DEF7DE18EE99
:102BD00018EE18EE18EEF7DEF7DEF7DEF7DE18EE89
:102BE00018EE18EEF7DEF7DEF7DEF7DE18EE18EE79
:102BF000F7DEF7DEF7DEF7DEF7DE18EE18EEF7DECB
:102C0000F7DEF7DEF7DE18EEF7DEF7DEF7DEF7DEEB
:102C1000F7DEF7DEF7DEF7DEF7DEF7DEF7DEF7DE0C
:102C200018EEF7DEF7DEF7DEF7DE18EE18EEF7DE69
:102C3000F7DEF7DE18EE18EE18EE18EE18EEF7DEF7
:102C4000F7DEF7DE18EE18EE18EEF7DEF7DEF7DE49
:102C5000F7DE18EE18EEF800F800F800F80018EEAD
:102C600018EE18EE18EE18EE18EE18EE18EE18EE34
:102C700018EE18EE18EEF7DEF7DEF7DEF7DEF7DE19
:102C8000F7DE18EE18EE18EE18EE18EE18EE18EE45
:102C900018EE18EE18EE18EEF800F800F7DEF7DE82
:102CA000F7DEF800F80018EE18EE18EEF7DEF7DEA3
:102CB000F7DEF7DE18EE18EEF7DEF7DEF7DEF7DE0A
:102CC00018EE18EE18EE18EE18EE18EE18EE18EED4
:102CD00018EEF7DEF7DEF7DE18EE18EE18EE18EE57
:102CE000F7DEF7DEF7DEF7DE18EE18EEF7DEF7DEDA
:102CF000F7DEF7DE18EE18EE18EE18EE18EE18EE06
:102D000018EE18EE18EEF7DEF7DEF7DE18EE18EE26
:102D100018EE18EE18EEF7DEF7DEF7DEF7DE18EE47
:102D200018EE18EEF7DEF7DEF7DE18EE18EE18EE06
:102D3000F7DEF7DEF7DEF7DEF7DE18EE18EEF7DE89
:102D4000F7DEF7DEF7DE18EEF7DEF7DEF7DEF7DEAA
:102D5000F7DEF7DEF7DEF7DEF7DEF7DEF7DEF7DECB
:102D600018EEF7DEF7DEF7DE18EE18EE18EEF7DEF7
:102D7000F7DEF7DEF7DE18EE18EE18EEF7DEF7DE18
:102D8000F7DEF7DE18EE18EE18EEF7DEF7DEF7DE08
:102D9000F7DE18EE18EEF800F800F80018EE18EE5E
:102DA00018EE18EE18EE18EE18EE18EE18EE18EEF3
:102DB00018EE18EEF7DEF7DEF7DEF7DEF7DEF7DE09
:102DC000F7DEF7DE18EE18EE18EE18EE18EE18EE35
:102DD00018EE18EE18EE18EE18EEF800F7DEF7DE33
:102DE000F7DEF800F80018EE18EE18EEF7DEF7DE62
:102DF000F7DE18EE18EE18EEF7DEF7DEF7DE18EE67
:102E000018EE18EE18EE18EE18EEF7DE18EE18EEC3
:102E100018EEF7DEF7DEF7DE18EE18EE18EE18EE15
:102E2000F7DEF7DEF7DEF7DE18EE18EEF7DEF7DE98
:102E3000F7DEF7DE18EE18EE18EE18EE18EE18EEC4
:102E4000F7DE18EEF7DEF7DEF7DEF7DE18EE18EE47
:102E500018EE18EE18EEF7DEF7DEF7DEF7DE18EE06
:102E600018EE18EEF7DEF7DEF7DE18EE18EE18EEC5
:102E7000F7DEF7DEF7DEF7DE18EE18EE18EEF7DE17
:102E8000F7DEF7DEF7DEF7DEF7DEF7DEF7DE18EE69
:102E900018EE18EE18EE18EEF7DEF7DEF7DEF7DEC6
:102EA00018EEF7DEF7DEF7DE18EE18EE18EEF7DEB6
:102EB000F7DEF7DEF7DE18EE18EE18EEF7DEF7DED7
:102EC000F7DEF7DE18EE18EE18EE18EEF7DEF7DE96
:102ED000F7DE18EEF800F800F800F80018EE18EE2B
:102EE00018EE18EE18EE18EE18EE18EE18EE18EEB2
:102EF00018EE18EEF7DEF7DEF7DEF7DEF7DEF7DEC8
:102F0000F7DEF7DE18EE18EE18EE18EE18EE18EEF3
:102F100018EE18EE18EE18EE18EEF7DEF7DEF7DE14
:102F2000F7DEF7DEF7DEF7DEF7DEF7DEF7DEF7DEF9
:102F3000F7DE18EE18EE18EEF7DEF7DEF7DEF7DE56
:102F4000F7DEF7DEF7DEF7DEF7DEF7DE18EE18EE77
:102F5000F7DEF7DEF7DEF7DE18EE18EE18EE18EE05
:102F6000F7DEF7DEF7DEF7DE18EE18EEF7DEF7DE57
:102F7000F7DEF7DEF7DEF7DEF7DEF7DEF7DEF7DEA9
:102F8000F7DE18EEF7DEF7DEF7DEF7DE18EE18EE06
:102F900018EE18EE18EEF7DEF7DEF7DE18EE18EE94
:102FA00018EEF7DEF7DEF7DEF7DE18EE18EE18EEB5
:102FB000F7DEF7DEF7DEF7DE18EE18EE18EEF7DED6
:102FC000F7DEF7DEF7DEF7DEF7DEF7DE18EE18EEF7
:102FD00018EE18EE18EE18EEF7DEF7DEF7DEF7DE85
:102FE000F7DEF7DEF7DEF7DE18EE18EE18EE18EE75
:102FF000F7DEF7DEF7DEF7DEF7DE18EEF7DEF7DEF8
:10300000F7DEF7DE18EE18EE18EE18EEF7DEF7DE54
:10301000F7DEF7DEF7DEF800F80018EE18EE18EE2F
:1030200018EE18EE18EE18EE18EE18EE18EE18EE70
:1030300018EE18EEF7DEF7DEF7DEF7DEF7DEF7DE86
:10304000F7DEF7DEF7DE18EE18EE18EE18EE18EEE3
:1030500018EE18EE18EE18EE18EEF7DEF7DEF7DED3
:10306000F7DEF7DEF7DEF7DEF7DEF7DEF7DEF7DEB8
:10307000F7DE18EE18EEF7DEF7DEF7DEF7DEF7DE46
:10308000F7DEF7DEF7DEF7DEF7DEF7DE18EE18EE36
:10309000F7DEF7DEF7DEF7DE18EE18EE18EE18EEC4
:1030A00018EEF7DEF7DEF7DE18EE18EEF7DEF7DEE5
:1030B000F7DEF7DEF7DEF7DEF7DEF7DEF7DEF7DE68
:1030C00018EE18EEF7DEF7DEF7DEF7DE18EE18EE94
:1030D00018EE18EE18EEF7DEF7DEF7DE18EE18EE53
:1030E00018EEF7DEF7DEF7DE18EE18EE18EE18EE43
:1030F000F7DEF7DEF7DE18EE18EE18EE18EEF7DE64
:10310000F7DEF7DEF7DEF7DEF7DEF7DE18EE18EEB5
:1031100018EE18EE18EE18EEF7DEF7DEF7DEF7DE43
:10312000F7DEF7DEF7DEF7DE18EE18EE18EE18EE33
:10313000F7DEF7DEF7DEF7DE18EE18EEF7DEF7DE85
:10314000F7DE18EE18EE18EE18EE18EEF7DEF7DEE2
:10315000F7DEF7DEF7DEF80018EE18EE18EE18EEE0
:1031600018EE18EE18EE18EE18EE18EE18EE18EE2F
:1031700018EEF7DEF7DEF7DEF7DEF7DEF7DEF7DE76
:10318000F7DEF7DEF7DEF7DE18EE18EE18EE18EED3
:1031900018EE18EE18EE18EE18EEF7DEF7DEF7DE92
:1031A000F7DEF7DEF7DEF7DEF7DEF7DEF7DEF7DE77
:1031B00018EE18EE18EEF7DEF7DEF7DEF7DEF7DED4
:1031C000F7DEF7DEF7DEF7DEF7DE18EE18EE18EEC4
:1031D000F7DEF7DEF7DEF7DE18EE18EE18EE18EE83
:1031E00018EEF7DEF7DEF7DE18EE18EE18EEF7DE73
:1031F000F7DEF7DEF7DEF7DEF7DEF7DEF7DEF7DE27
:1032000018EE18EEF7DEF7DEF7DEF7DE18EE18EE52
:1032100018EE18EEF7DEF7DEF7DEF7DEF7DE18EE73
:1032200018EEF7DEF7DEF7DEF7DE18EE18EE18EE32
:10323000F7DEF7DEF7DE18EE18EE18EE18EEF7DE22
:10324000F7DEF7DEF7DEF7DEF7DEF7DE18EE18EE74
:1032500018EE18EE18EE18EEF7DEF7DEF7DEF7DE02
:10326000F7DEF7DEF7DEF7DE18EE18EE18EE18EEF2
:10327000F7DEF7DEF7DEF7DE18EE18EEF7DEF7DE44
:10328000F7DEF7DE18EE18EE18EE18EEF7DEF7DED2
:10329000F7DEF7DE18EE18EE18EE18EE18EE18EE60
:1032A00018EE18EE18EE18EE18EE18EE18EE18EEEE
:1032B000F7DEF7DEF7DEF7DEF7DEF7DEF7DEF7DE66
:1032C000F7DEF7DEF7DEF7DE18EE18EE18EE18EE92
:1032D00018EE18EE18EE18EE18EE18EE18EE18EEBE
:1032E00018EE18EEF800F800F800F800F800F80002
:1032F00018EE18EE18EE18EE18EE18EE18EE18EE9E
:1033000018EE18EE18EE18EE18EE18EE18EE18EE8D
:1033100018EE18EE18EE18EE18EE18EE18EE18EE7D
:1033200018EE18EE18EE18EE18EE18EE18EE18EE6D
:1033300018EE18EE18EE18EE18EE18EE18EE18EE5D
:1033400018EE18EE18EE18EE18EE18EE18EE18EE4D
:1033500018EE18EE18EE18EE18EE18EE18EE18EE3D
:1033600018EE18EE18EE18EE18EE18EE18EE18EE2D
:1033700018EE18EE18EE18EE18EE18EE18EE18EE1D
:1033800018EE18EE18EE18EE18EE18EE18EE18EE0D
:1033900018EE18EE18EE18EE18EE18EE18EE18EEFD
:1033A00018EE18EE18EE18EE18EE18EE18EE18EEED
:1033B00018EE18EE18EE18EE18EE18EE18EE18EEDD
:1033C00018EE18EE18EE18EE18EEF800F800F800F7
:1033D000F80018EE18EE18EE18EE18EE18EE18EECB
:1033E00018EE18EE18EE18EE18EE18EE18EE18EEAD
:1033F000F7DEF7DEF7DEF7DEF7DEF7DEF7DEF7DE25
:10340000F7DEF7DEF7DEF7DEF7DE18EE18EE18EE81
:1034100018EE18EE18EE18EE18EE18EE18EE18EE7C
:1034200018EE18EE18EEF800F800F800F800F800B2
:10343000F800F80018EE18EE18EE18EE18EE18EE78
:1034400018EE18EE18EE18EE18EE18EE18EE18EE4C
:1034500018EE18EE18EE18EE18EE18EE18EE18EE3C
:1034600018EE18EE18EE18EE18EE18EE18EE18EE2C
:1034700018EE18EE18EE18EE18EE18EE18EE18EE1C
:1034800018EE18EE18EE18EE18EE18EE18EE18EE0C
:1034900018EE18EE18EE18EE18EE18EE18EE18EEFC
:1034A00018EE18EE18EE18EE18EE18EE18EE18EEEC
:1034B00018EE18EE18EE18EE18EE18EE18EE18EEDC
:1034C00018EE18EE18EE18EE18EE18EE18EE18EECC
:1034D00018EE18EE18EE18EE18EE18EE18EE18EEBC
:1034E00018EE18EE18EE18EE18EE18EE18EE18EEAC
:1034F00018EE18EE18EE18EE18EE18EE18EE18EE9C
:1035000018EE18EE18EE18EEF800F800F80018EEB5
:1035100018EE18EE18EE18EE18EE18EE18EE18EE7B
:1035200018EE18EE18EE18EE18EE18EE18EEF7DE9C
:10353000F7DEF7DEF7DEF7DEF7DEF7DEF7DEF7DEE3
:10354000F7DEF7DEF7DEF7DEF7DEF7DE18EE18EE71
:1035500018EE18EE18EE18EE18EE18EE18EE18EE3B
:1035600018EE18EE18EE18EE18EEF800F800F80055
:10357000F800F800F800F80018EE18EE18EE18EE53
:1035800018EE18EE18EE18EE18EE18EE18EE18EE0B
:1035900018EE18EE18EE18EE18EE18EE18EE18EEFB
:1035A00018EE18EE18EE18EE18EE18EE18EE18EEEB
:1035B00018EE18EE18EE18EE18EE18EE18EE18EEDB
:1035C00018EE18EE18EE18EE18EE18EE18EE18EECB
:1035D00018EE18EE18EE18EE18EE18EE18EE18EEBB
:1035E00018EE18EE18EE18EE18EE18EE18EE18EEAB
:1035F00018EE18EE18EE18EE18EE18EE18EE18EE9B
:1036000018EE18EE18EE18EE18EE18EE18EE18EE8A
:1036100018EE18EE18EE18EE18EE18EE18EE18EE7A
:1036200018EE18EE18EE18EE18EE18EE18EE18EE6A
:1036300018EE18EE18EE18EE18EE18EE18EE18EE5A
:1036400018EE18EEF800F800F80018EE18EE18EE74
:1036500018EE18EE18EE18EE18EE18EE18EE18EE3A
:1036600018EE18EE18EE18EE18EE18EEF7DEF7DE8C
:10367000F7DEF7DEF7DEF7DEF7DEF7DEF7DEF7DEA2
:10368000F7DEF7DEF7DEF7DEF7DEF7DEF7DE18EE61
:1036900018EE18EE18EE18EE18EE18EE18EE18EEFA
:1036A00018EE18EE18EE18EE18EE18EE18EEF800F8
:1036B000F800F800F800F800F800F80018EE18EE2E
:1036C00018EE18EE18EE18EE18EE18EE18EE18EECA
:1036D00018EE18EE18EE18EE18EE18EE18EE18EEBA
:1036E00018EE18EE18EE18EE18EE18EE18EE18EEAA
:1036F00018EE18EE18EE18EE18EE18EE18EE18EE9A
:1037000018EE18EE18EE18EE18EE18EE18EE18EE89
:1037100018EE18EE18EE18EE18EE18EE18EE18EE79
:1037200018EE18EE18EE18EE18EE18EE18EE18EE69
:1037300018EE18EE18EE18EE18EE18EE18EE18EE59
:1037400018EE18EE18EE18EE18EE18EE18EE18EE49
:1037500018EE18EE18EE18EE18EE18EE18EE18EE39
:1037600018EE18EE18EE18EE18EE18EE18EE18EE29
:1037700018EE18EE18EE18EE18EE18EE18EEF80027
:10378000F800F800F80018EE18EE18EE18EE18EE33
:1037900018EE18EE18EE18EE18EE18EE18EE18EEF9
:1037A00018EE18EE18EE18EE18EEF7DEF7DEF7DE7C
:1037B000F7DEF7DEF7DEF7DEF7DEF7DEF7DEF7DE61
:1037C000F7DEF7DEF7DEF7DEF7DEF7DEF7DEF7DE51
:1037D000F7DE18EE18EE18EE18EE18EE18EE18EEEA
:1037E00018EE18EE18EE18EE18EE18EE18EE18EEA9
:1037F00018EE18EEF800F800F800F800F800F800ED
:10380000F80018EE18EE18EE18EE18EE18EE18EE96
:1038100018EE18EE18EE18EE18EE18EE18EE18EE78
:1038200018EE18EE18EE18EE18EE18EE18EE18EE68
:1038300018EE18EE18EE18EE18EE18EE18EE18EE58
:1038400018EE18EE18EE18EE18EE18EE18EE18EE48
:1038500018EE18EE18EE18EE18EE18EE18EE18EE38
:1038600018EE18EE18EE18EE18EE18EE18EE18EE28
:1038700018EE18EE18EE18EE18EE18EE18EE18EE18
:1038800018EE18EE18EE18EE18EE18EE18EE18EE08
:1038900018EE18EE18EE18EE18EE18EE18EE18EEF8
:1038A00018EE18EE18EE18EE18EE18EE18EE18EEE8
:1038B00018EE18EE18EE18EE18EEF800F800F80002
:1038C00018EE18EE18EE18EE18EE18EE18EE18EEC8
:1038D00018EE18EE18EE18EE18EE18EE18EE18EEB8
:1038E00018EE18EE18EEF7DEF7DEF7DEF7DEF7DE9D
:1038F000F7DEF7DEF7DEF7DEF7DEF7DEF7DEF7DE20
:10390000F7DEF7DEF7DEF7DEF7DEF7DEF7DEF7DE0F
:10391000F7DEF7DE18EE18EE18EE18EE18EE18EED9
:1039200018EE18EE18EE18EE18EE18EE18EE18EE67
:1039300018EE18EE18EE18EE18EEF800F800F80081
:10394000F800F800F800F80018EE18EE18EE18EE7F
:1039500018EE18EE18EE18EE18EE18EE18EE18EE37
:1039600018EE18EE18EE18EE18EE18EE18EE18EE27
:1039700018EE18EE18EE18EE18EE18EE18EE18EE17
:1039800018EE18EE18EE18EE18EE18EE18EE18EE07
:1039900018EE18EE18EE18EE18EE18EE18EE18EEF7
:1039A00018EE18EE18EE18EE18EE18EE18EE18EEE7
:1039B00018EE18EE18EE18EE18EE18EE18EE18EED7
:1039C00018EE18EE18EE18EE18EE18EE18EE18EEC7
:1039D00018EE18EE18EE18EE18EE18EE18EE18EEB7
:1039E00018EE18EE18EE18EE18EE18EE18EE18EEA7
:1039F00018EE18EE18EE18EEF800F80018EE18EEB3
:103A000018EE18EE18EE18EE18EE18EE18EE18EE86
:103A100018EE18EE18EE18EE18EE18EE18EE18EE76
:103A200018EE18EEF7DEF7DEF7DEF7DEF7DEF7DE8C
:103A3000F7DEF7DEF7DEF7DEF7DEF7DEF7DEF7DEDE
:103A4000F7DEF7DEF7DEF7DEF7DEF7DEF7DEF7DECE
:103A5000F7DEF7DEF7DEF7DE18EE18EE18EE18EEFA
:103A600018EE18EE18EE18EE18EE18EE18EE18EE26
:103A700018EE18EE18EE18EE18EE18EE18EE18EE16
:103A8000F800F800F800F800F800F800F800F80076
:103A900018EE18EE18EE18EE18EE18EE18EE18EEF6
:103AA00018EE18EE18EE18EE18EE18EE18EE18EEE6
:103AB00018EE18EE18EE18EE18EE18EE18EE18EED6
:103AC00018EE18EE18EE18EE18EE18EE18EE18EEC6
:103AD00018EE18EE18EE18EE18EE18EE18EE18EEB6
:103AE00018EE18EE18EE18EE18EE18EE18EE18EEA6
:103AF00018EE18EE18EE18EE18EE18EE18EE18EE96
:103B000018EE18EE18EE18EE18EE18EE18EE18EE85
:103B100018EE18EE18EE18EE18EE18EE18EE18EE75
:103B200018EE18EE18EE18EE18EE18EE18EE18EE65
:103B300018EE18EE18EE18EE18EE18EE18EE18EE55
:103B400018EE18EE18EE18EE18EE18EE18EE18EE45
:103B500018EE18EE18EE18EE18EE18EE18EE18EE35
:103B6000F7DEF7DEF7DEF7DEF7DEF7DEF7DEF7DEAD
:103B7000F7DEF7DEF7DEF7DEF7DEF7DEF7DEF7DE9D
:103B8000F7DEF7DEF7DEF7DEF7DEF7DEF7DEF7DE8D
:103B9000F7DEF7DEF7DEF7DEF7DE18EE18EE18EEEA
:103BA00018EE18EE18EE18EE18EE18EE18EE18EEE5
:103BB00018EE18EE18EE18EE18EE18EE18EE18EED5
:103BC00018EE18EE18EE18EEF800F800F800F800FD
:103BD000F800F800F80018EE18EE18EE18EE18EEDF
:103BE00018EE18EE18EE18EE18EE18EE18EE18EEA5
:103BF00018EE18EE18EE18EE18EE18EE18EE18EE95
:103C000018EE18EE18EE18EE18EE18EE18EE18EE84
:103C100018EE18EE18EE18EE18EE18EE18EE18EE74
:103C200018EE18EE18EE18EE18EE18EE18EE18EE64
:103C300018EE18EE18EE18EE18EE18EE18EE18EE54
:103C400018EE18EE18EE18EE18EE18EE18EE18EE44
:103C500018EE18EE18EE18EE18EE18EE18EE18EE34
:103C600018EE18EE18EE18EE18EE18EE18EE18EE24
:103C700018EE18EE18EE18EE18EE18EE18EE18EE14
:103C800018EE18EE18EE18EE18EE18EE18EE18EE04
:103C900018EE18EE18EE18EE18EE18EE18EEF7DE25
:103CA000F7DEF7DEF7DEF7DEF7DEF7DEF7DEF7DE6C
:103CB000F7DEF7DEF7DEF7DEF7DEF7DEF7DEF7DE5C
:103CC000F7DEF7DEF7DEF7DEF7DEF7DEF7DEF7DE4C
:103CD000F7DEF7DEF7DEF7DEF7DEF7DEF7DE18EE0B
:103CE00018EE18EE18EE18EE18EE18EE18EE18EEA4
:103CF00018EE18EE18EE18EE18EE18EE18EE18EE94
:103D000018EE18EE18EE18EE18EE18EE18EE18EE83
:103D1000F800F800F800F800F800F800F800F800E3
:103D2000F80018EE18EE18EE18EE18EE18EE18EE71
:103D300018EE18EE18EE18EE18EE18EE18EE18EE53
:103D400018EE18EE18EE18EE18EE18EE18EE18EE43
:103D500018EE18EE18EE18EE18EE18EE18EE18EE33
:103D600018EE18EE18EE18EE18EE18EE18EE18EE23
:103D700018EE18EE18EE18EE18EE18EE18EE18EE13
:103D800018EE18EE18EE18EE18EE18EE18EE18EE03
:103D900018EE18EE18EE18EE18EE18EE18EE18EEF3
:103DA00018EE18EE18EE18EE18EE18EE18EE18EEE3
:103DB00018EE18EE18EE18EE18EE18EE18EE18EED3
:103DC00018EE18EE18EE18EE18EE18EE18EE18EEC3
:103DD00018EE18EE18EE18EE18EEF7DEF7DEF7DE46
:103DE000F7DEF7DEF7DEF7DEF7DEF7DEF7DEF7DE2B
:103DF000F7DEF7DEF7DEF7DEF7DEF7DEF7DEF7DE1B
:103E0000F7DEF7DEF7DEF7DEF7DEF7DEF7DEF7DE0A
:103E1000F7DEF7DEF7DEF7DEF7DEF7DEF7DEF7DEFA
:103E2000F7DE18EE18EE18EE18EE18EE18EE18EE93
:103E300018EE18EE18EE18EE18EE18EE18EE18EE52
:103E400018EE18EE18EE18EE18EE18EE18EE18EE42
:103E500018EE18EE18EE18EE18EEF800F800F8005C
:103E6000F800F800F800F800F800F800F80018EE84
:103E700018EE18EE18EE18EE18EE18EE18EE18EE12
:103E800018EE18EE18EE18EE18EE18EE18EE18EE02
:103E900018EE18EE18EE18EE18EE18EE18EE18EEF2
:103EA00018EE18EE18EE18EE18EE18EE18EE18EEE2
:103EB00018EE18EE18EE18EE18EE18EE18EE18EED2
:103EC00018EE18EE18EE18EE18EE18EE18EE18EEC2
:103ED00018EE18EE18EE18EE18EE18EE18EE18EEB2
:103EE00018EE18EE18EE18EE18EE18EE18EE18EEA2
:103EF00018EE18EE18EE18EE18EE18EE18EE18EE92
:103F000018EE18EE18EE18EE18EE18EE18EE18EE81
:103F100018EE18EE18EEF7DEF7DEF7DEF7DEF7DE66
:103F2000F7DEF7DEF7DEF7DEF7DEF7DEF7DEF7DEE9
:103F3000F7DEF7DEF7DEF7DEF7DEF7DEF7DEF7DED9
:103F4000F7DEF7DEF7DEF7DEF7DEF7DEF7DEF7DEC9
:103F5000F7DEF7DEF7DEF7DEF7DEF7DEF7DEF7DEB9
:103F6000F7DEF7DEF7DE18EE18EE18EE18EE18EEB4
:103F700018EE18EE18EE18EE18EE18EE18EE18EE11
:103F800018EE18EE18EE18EE18EE18EE18EE18EE01
:103F900018EE18EE18EE18EE18EE18EE18EE18EEF1
:103FA00018EE18EE18EE18EEF800F800F800F80019
:103FB000F800F800F800F800F800F80018EE18EE25
:103FC00018EE18EE18EE18EE18EE18EE18EE18EEC1
:103FD00018EE18EE18EE18EE18EE18EE18EE18EEB1
:103FE00018EE18EE18EE18EE18EE18EE18EE18EEA1
:103FF00018EE18EE18EE18EE18EE18EE18EE18EE91
:1040000018EE18EE18EE18EE18EE18EE18EE18EE80
:1040100018EE18EE18EE18EE18EE18EE18EE18EE70
:1040200018EE18EE18EE18EE18EE18EE18EE18EE60
:1040300018EE18EE18EE18EE18EE18EE18EE18EE50
:1040400018EE18EE18EE18EE18EE18EE18EE18EE40
:1040500018EEF7DEF7DEF7DEF7DEF7DEF7DEF7DE87
:10406000F7DEF7DEF7DEF7DEF7DEF7DEF7DEF7DEA8
:10407000F7DEF7DEF7DEF7DEF7DEF7DEF7DEF7DE98
:10408000F7DEF7DEF7DEF7DEF7DEF7DEF7DEF7DE88
:10409000F7DEF7DEF7DEF7DEF7DEF7DEF7DEF7DE78
:1040A000F7DEF7DEF7DEF7DEF7DEF7DE18EE18EE06
:1040B00018EE18EE18EE18EE18EE18EE18EE18EED0
:1040C00018EE18EE18EE18EE18EE18EE18EE18EEC0
:1040D00018EE18EE18EE18EE18EE18EE18EE18EEB0
:1040E00018EE18EE18EE18EE18EE18EE18EE18EEA0
:1040F00018EE18EE18EE18EE18EE18EE18EE18EE90
:1041000018EE18EE18EE18EE18EE18EE18EE18EE7F
:1041100018EE18EE18EE18EE18EE18EE18EE18EE6F
:1041200018EE18EE18EE18EE18EE18EE18EE18EE5F
:1041300018EE18EE18EE18EE18EE18EE18EE18EE4F
:1041400018EE18EE18EE18EE18EE18EE18EE18EE3F
:1041500018EE18EE18EE18EE18EE18EE18EE18EE2F
:1041600018EE18EE18EE18EE18EE18EE18EE18EE1F
:1041700018EE18EE18EE18EE18EE18EE18EE18EE0F
:1041800018EE18EE18EE18EE18EE18EEF7DEF7DE61
:10419000F7DEF7DEF7DEF7DEF7DEF7DEF7DEF7DE77
:1041A000F7DEF7DEF7DEF7DEF7DEF7DEF7DEF7DE67
:1041B000F7DEF7DEF7DEF7DEF7DEF7DEF7DEF7DE57
:1041C000F7DEF7DEF7DEF7DEF7DEF7DEF7DEF7DE47
:1041D000F7DEF7DEF7DEF7DEF7DEF7DEF7DEF7DE37
:1041E000F7DEF7DEF7DEF7DEF7DEF7DEF7DEF7DE27
:1041F00018EE18EE18EE18EE18EE18EE18EE18EE8F
:1042000018EE18EE18EE18EE18EE18EE18EE18EE7E
:1042100018EE18EE18EE18EE18EE18EE18EE18EE6E
:1042200018EE18EE18EE18EE18EE18EE18EE18EE5E
:1042300018EE18EE18EE18EE18EE18EE18EE18EE4E
:1042400018EE18EE18EE18EE18EE18EE18EE18EE3E
:1042500018EE18EE18EE18EE18EE18EE18EE18EE2E
:1042600018EE18EE18EE18EE18EE18EE18EE18EE1E
:1042700018EE18EE18EE18EE18EE18EE18EE18EE0E
:1042800018EE18EE18EE18EE18EE18EE18EE18EEFE
:1042900018EE18EE18EE18EE18EE18EE18EE18EEEE
:1042A00018EE18EE18EE18EE18EE18EE18EE18EEDE
:1042B00018EE18EE18EE18EE18EE18EE18EE18EECE
:1042C00018EE18EE18EE18EEF7DEF7DEF7DEF7DE82
:1042D000F7DEF7DEF7DEF7DEF7DEF7DEF7DEF7DE36
:1042E000F7DEF7DEF7DEF7DEF7DEF7DEF7DEF7DE26
:1042F000F7DEF7DEF7DEF7DEF7DEF7DEF7DEF7DE16
:10430000F7DEF7DEF7DEF7DEF7DEF7DEF7DEF7DE05
:10431000F7DEF7DEF7DEF7DEF7DEF7DEF7DEF7DEF5
:10432000F7DEF7DEF7DEF7DEF7DEF7DEF7DEF7DEE5
:10433000F7DEF7DEF7DE18EE18EE18EE18EE18EEE0
:1043400018EE18EE18EE18EE18EE18EE18EE18EE3D
:1043500018EE18EE18EE18EE18EE18EE18EE18EE2D
:1043600018EE18EE18EE18EE18EE18EE18EE18EE1D
:1043700018EE18EE18EE18EE18EE18EE18EE18EE0D
:1043800018EE18EE18EE18EE18EE18EE18EE18EEFD
:1043900018EE18EE18EE18EE18EE18EE18EE18EEED
:1043A00018EE18EE18EE18EE18EE18EE18EE18EEDD
:1043B00018EE18EE18EE18EE18EE18EE18EE18EECD
:1043C00018EE18EE18EE18EE18EE18EE18EE18EEBD
:1043D00018EE18EE18EE18EE18EE18EE18EE18EEAD
:1043E00018EE18EE18EE18EE18EE18EE18EE18EE9D
:1043F00018EE18EE18EE18EE18EE18EE18EE18EE8D
:1044000018EEF7DEF7DEF7DEF7DEF7DEF7DEF7DED3
:10441000F7DEF7DEF7DEF7DEF7DEF7DEF7DEF7DEF4
:10442000F7DEF7DEF7DEF7DEF7DEF7DEF7DEF7DEE4
:10443000F7DEF7DEF7DEF7DEF7DEF7DEF7DEF7DED4
:10444000F7DEF7DEF7DEF7DEF7DEF7DEF7DEF7DEC4
:10445000F7DEF7DEF7DEF7DEF7DEF7DEF7DEF7DEB4
:10446000F7DEF7DEF7DEF7DEF7DEF7DEF7DEF7DEA4
:10447000F7DEF7DEF7DEF7DEF7DEF7DEF7DE18EE63
:1044800018EE18EE18EE18EE18EE18EE18EE18EEFC
:1044900018EE18EE18EE18EE18EE18EE18EE18EEEC
:1044A00018EE18EE18EE18EE18EE18EE18EE18EEDC
:1044B00018EE18EE18EE18EE18EE18EE18EE18EECC
:1044C00018EE18EE18EE18EE18EE18EE18EE18EEBC
:1044D00018EE18EE18EE18EE18EE18EE18EE18EEAC
:1044E00018EE18EE18EE18EE18EE18EE18EE18EE9C
:1044F00018EE18EE18EE18EE18EE18EE18EE18EE8C
:1045000018EE18EE18EE18EE18EE18EE18EE18EE7B
:1045100018EE18EE18EE18EE18EE18EE18EE18EE6B
:1045200018EE18EE18EE18EE18EE18EE18EE18EE5B
:1045300018EE18EE18EE18EE18EEF7DEF7DEF7DEDE
:10454000F7DEF7DEF7DEF7DEF7DEF7DEF7DEF7DEC3
:10455000F7DEF7DEF7DEF7DEF7DEF7DEF7DEF7DEB3
:10456000F7DEF7DEF7DEF7DEF7DEF7DEF7DEF7DEA3
:10457000F7DEF7DEF7DEF7DEF7DEF7DEF7DEF7DE93
:10458000F7DEF7DEF7DEF7DEF7DEF7DEF7DEF7DE83
:10459000F7DEF7DEF7DEF7DEF7DEF7DEF7DEF7DE73
:1045A000F7DEF7DEF7DEF7DEF7DEF7DEF7DEF7DE63
:1045B000F7DEF7DEF7DEF7DEF7DEF7DEF7DEF7DE53
:1045C000F7DEF7DE18EE18EE18EE18EE18EE18EE1D
:1045D00018EE18EE18EE18EE18EE18EE18EE18EEAB
:1045E00018EE18EE18EE18EE18EE18EE18EE18EE9B
:1045F00018EE18EE18EE18EE18EE18EE18EE18EE8B
:1046000018EE18EE18EE18EE18EE18EE18EE18EE7A
:1046100018EE18EE18EE18EE18EE18EE18EE18EE6A
:1046200018EE18EE18EE18EE18EE18EE18EE18EE5A
:1046300018EE18EE18EE18EE18EE18EE18EE18EE4A
:1046400018EE18EE18EE18EE18EE18EE18EE18EE3A
:1046500018EE18EE18EE18EE18EE18EE18EE18EE2A
:1046600018EE18EE18EE18EE18EE18EE18EE18EE1A
:1046700018EE18EEF7DEF7DEF7DEF7DEF7DEF7DE30
:10468000F7DEF7DEF7DEF7DEF7DEF7DEF7DEF7DE82
:10469000F7DEF7DEF7DEF7DEF7DEF7DEF7DEF7DE72
:1046A000F7DEF7DEF7DEF7DEF7DEF7DEF7DEF7DE62
:1046B000F7DEF7DEF7DEF7DEF7DEF7DEF7DEF7DE52
:1046C000F7DEF7DEF7DEF7DEF7DEF7DEF7DEF7DE42
:1046D000F7DEF7DEF7DEF7DEF7DEF7DEF7DEF7DE32
:1046E000F7DEF7DEF7DEF7DEF7DEF7DEF7DEF7DE22
:1046F000F7DEF7DEF7DEF7DEF7DEF7DEF7DEF7DE12
:10470000F7DEF7DEF7DEF7DEF7DEF7DE18EE18EE9F
:1047100018EE18EE18EE18EE18EE18EE18EE18EE69
:1047200018EE18EE18EE18EE18EE18EE18EE18EE59
:1047300018EE18EE18EE18EE18EE18EE18EE18EE49
:1047400018EE18EE18EE18EE18EE18EE18EE18EE39
:1047500018EE18EE18EE18EE18EE18EE18EE18EE29
:1047600018EE18EE18EE18EE18EE18EE18EE18EE19
:1047700018EE18EE18EE18EE18EE18EE18EE18EE09
:1047800018EE18EE18EE18EE18EE18EE18EE18EEF9
:1047900018EE18EE18EE18EE18EE18EE18EE18EEE9
:1047A00018EE18EE18EE18EE18EE18EEF7DEF7DE3B
:1047B000F7DEF7DEF7DEF7DEF7DEF7DEF7DEF7DE51
:1047C000F7DEF7DEF7DEF7DEF7DEF7DEF7DEF7DE41
:1047D000F7DEF7DEF7DEF7DEF7DEF7DEF7DEF7DE31
:1047E000F7DEF7DEF7DEF7DEF7DEF7DEF7DEF7DE21
:1047F000F7DEF7DEF7DEF7DEF7DEF7DEF7DEF7DE11
:10480000F7DEF7DEF7DEF7DEF7DEF7DEF7DEF7DE00
:10481000F7DEF7DEF7DEF7DEF7DEF7DEF7DEF7DEF0
:10482000F7DEF7DEF7DEF7DEF7DEF7DEF7DEF7DEE0
:10483000F7DEF7DEF7DEF7DEF7DEF7DEF7DEF7DED0
:10484000F7DEF7DEF7DEF7DEF7DEF7DEF7DEF7DEC0
:10485000F7DEF7DEF7DE18EE18EE18EE18EE18EEBB
:1048600018EE18EE18EE18EE18EE18EE18EE18EE18
:1048700018EE18EE18EE18EE18EE18EE18EE18EE08
:1048800018EE18EE18EE18EE18EE18EE18EE18EEF8
:1048900018EE18EE18EE18EE18EE18EE18EE18EEE8
:1048A00018EE18EE18EE18EE18EE18EE18EE18EED8
:1048B00018EE18EE18EE18EE18EE18EE18EE18EEC8
:1048C00018EE18EE18EE18EE18EE18EE18EE18EEB8
:1048D00018EE18EE18EE18EE18EE18EE18EE18EEA8
:1048E00018EEF7DEF7DEF7DEF7DEF7DEF7DEF7DEEF
:1048F000F7DEF7DEF7DEF7DEF7DEF7DEF7DEF7DE10
:10490000F7DEF7DEF7DEF7DEF7DEF7DEF7DEF7DEFF
:10491000F7DEF7DEF7DEF7DEF7DEF7DEF7DEF7DEEF
:10492000F7DEF7DEF7DEF7DEF7DEF7DEF7DEF7DEDF
:10493000F7DEF7DEF7DEF7DEF7DEF7DEF7DEF7DECF
:10494000F7DEF7DEF7DEF7DEF7DEF7DEF7DEF7DEBF
:10495000F7DEF7DEF7DEF7DEF7DEF7DEF7DEF7DEAF
:10496000F7DEF7DEF7DEF7DEF7DEF7DEF7DEF7DE9F
:10497000F7DEF7DEF7DEF7DEF7DEF7DEF7DEF7DE8F
:10498000F7DEF7DEF7DEF7DEF7DEF7DEF7DEF7DE7F
:10499000F7DEF7DEF7DEF7DEF7DEF7DEF7DEF7DE6F
:1049A00018EE18EE18EE18EE18EE18EE18EE18EED7
:1049B00018EE18EE18EE18EE18EE18EE18EE18EEC7
:1049C00018EE18EE18EE18EE18EE18EE18EE18EEB7
:1049D00018EE18EE18EE18EE18EE18EE18EE18EEA7
:1049E00018EE18EE18EE18EE18EE18EE18EE18EE97
:1049F00018EE18EE18EE18EE18EE18EE18EE18EE87
:104A000018EE18EE18EE18EE18EE18EE18EE18EE76
:104A100018EE18EE18EE18EEF7DEF7DEF7DEF7DE2A
:104A2000F7DEF7DEF7DEF7DEF7DEF7DEF7DEF7DEDE
:104A3000F7DEF7DEF7DEF7DEF7DEF7DEF7DEF7DECE
:104A4000F7DEF7DEF7DEF7DEF7DEF7DEF7DEF7DEBE
:104A5000F7DEF7DEF7DEF7DEF7DEF7DEF7DEF7DEAE
:104A6000F7DEF7DEF7DEF7DEF7DEF7DEF7DEF7DE9E
:104A7000F7DEF7DEF7DEF7DEF7DEF7DEF7DEF7DE8E
:104A8000F7DEF7DEF7DEF7DEF7DEF7DEF7DEF7DE7E
:104A9000F7DEF7DEF7DEF7DEF7DEF7DEF7DEF7DE6E
:104AA000F7DEF7DEF7DEF7DEF7DEF7DEF7DEF7DE5E
:104AB000F7DEF7DEF7DEF7DEF7DEF7DEF7DEF7DE4E
:104AC000F7DEF7DEF7DEF7DEF7DEF7DEF7DEF7DE3E
:104AD000F7DEF7DEF7DEF7DEF7DEF7DEF7DEF7DE2E
:104AE000F7DEF7DEF7DEF7DEF7DEF7DEF7DEF7DE1E
:104AF000F7DE18EE18EE18EE18EE18EE18EE18EEB7
:104B000018EE18EE18EE18EE18EE18EE18EE18EE75
:104B100018EE18EE18EE18EE18EE18EE18EE18EE65
:104B200018EE18EE18EE18EE18EE18EE18EE18EE55
:104B300018EE18EE18EE18EE18EE18EE18EE18EE45
:104B400018EE18EE18EEF7DEF7DEF7DEF7DEF7DE2A
:104B5000F7DEF7DEF7DEF7DEF7DEF7DEF7DEF7DEAD
:104B6000F7DEF7DEF7DEF7DEF7DEF7DEF7DEF7DE9D
:104B7000F7DEF7DEF7DEF7DEF7DEF7DEF7DEF7DE8D
:104B8000F7DEF7DEF7DEF7DEF7DEF7DEF7DEF7DE7D
:104B9000F7DEF7DEF7DEF7DEF7DEF7DEF7DEF7DE6D
:104BA000F7DEF7DEF7DEF7DEF7DEF7DEF7DEF7DE5D
:104BB000F7DEF7DEF7DEF7DEF7DEF7DEF7DEF7DE4D
:104BC000F7DEF7DEF7DEF7DEF7DEF7DEF7DEF7DE3D
:104BD000F7DEF7DEF7DEF7DEF7DEF7DEF7DEF7DE2D
:104BE000F7DEF7DEF7DEF7DEF7DEF7DEF7DEF7DE1D
:104BF000F7DEF7DEF7DEF7DEF7DEF7DEF7DEF7DE0D
:104C0000F7DEF7DEF7DEF7DEF7DEF7DEF7DEF7DEFC
:104C1000F7DEF7DEF7DEF7DEF7DEF7DEF7DEF7DEEC
:104C2000F7DEF7DEF7DEF7DEF7DEF7DEF7DEF7DEDC
:104C3000F7DEF7DEF7DEF7DEF7DEF7DEF7DEF7DECC
:104C4000F7DEF7DEF7DEF7DEF7DEF7DEF7DEF7DEBC
:104C500018EE18EE18EE18EE18EE18EE18EE18EE24
:104C600018EE18EE18EE18EEF7DEF7DEF7DEF7DED8
:104C7000F7DEF7DEF7DEF7DEF7DEF7DEF7DEF7DE8C
:104C8000F7DEF7DEF7DEF7DEF7DEF7DEF7DEF7DE7C
:104C9000F7DEF7DEF7DEF7DEF7DEF7DEF7DEF7DE6C
:104CA000F7DEF7DEF7DEF7DEF7DEF7DEF7DEF7DE5C
:104CB000F7DEF7DEF7DEF7DEF7DEF7DEF7DEF7DE4C
:104CC000F7DEF7DEF7DEF7DEF7DEF7DEF7DEF7DE3C
:104CD000F7DEF7DEF7DEF7DEF7DEF7DEF7DEF7DE2C
:104CE000F7DEF7DEF7DEF7DEF7DEF7DEF7DEF7DE1C
:104CF000F7DEF7DEF7DEF7DEF7DEF7DEF7DEF7DE0C
:104D0000F7DEF7DEF7DEF7DEF7DEF7DEF7DEF7DEFB
:104D1000F7DEF7DEF7DEF7DEF7DEF7DEF7DEF7DEEB
:104D2000F7DEF7DEF7DEF7DEF7DEF7DEF7DEF7DEDB
:104D3000F7DEF7DEF7DEF7DEF7DEF7DEF7DEF7DECB
:104D4000F7DEF7DEF7DEF7DEF7DEF7DEF7DEF7DEBB
:104D5000F7DEF7DEF7DEF7DEF7DEF7DEF7DEF7DEAB
:104D6000F7DEF7DEF7DEF7DEF7DEF7DEF7DEF7DE9B
:104D7000F7DEF7DEF7DEF7DEF7DEF7DEF7DEF7DE8B
:104D8000F7DEF7DEF7DEF7DEF7DEF7DEF7DEF7DE7B
:104D9000F7DEF7DEF7DEF7DEF7DEF7DEF7DEF7DE6B
:104DA000F7DEF7DEF7DEF7DEF7DEF7DEF7DEF7DE5B
:104DB000F7DEF7DEF7DEF7DEF7DEF7DEF7DEF7DE4B
:104DC000F7DEF7DEF7DEF7DEF7DEF7DEF7DEF7DE3B
:104DD000F7DEF7DEF7DEF7DEF7DEF7DEF7DEF7DE2B
:104DE000F7DEF7DEF7DEF7DEF7DEF7DEF7DEF7DE1B
:104DF000F7DEF7DEF7DEF7DEF7DEF7DEF7DEF7DE0B
:104E0000F7DEF7DEF7DEF7DEF7DEF7DEF7DEF7DEFA
:104E1000F7DEF7DEF7DEF7DEF7DEF7DEF7DEF7DEEA
:104E2000F7DEF7DEF7DEF7DEF7DEF7DEF7DEF7DEDA
:104E3000F7DEF7DEF7DEF7DEF7DEF7DEFFFFF7DEA1
:104E4000F7DEF7DEF7DEF7DEF7DEF7DEF7DEF7DEBA
:104E5000F7DEF7DEF7DEF7DEF7DEF7DEF7DEF7DEAA
:104E6000F7DEF7DEF7DEF7DEF7DEF7DEF7DEF7DE9A
:104E7000F7DEF7DEF7DEF7DEF7DEF7DEF7DEF7DE8A
:104E8000F7DEF7DEF7DEF7DEF7DEF7DEF7DEF7DE7A
:104E9000F7DEF7DEF7DEF7DEF7DEF7DEF7DEF7DE6A
:104EA000F7DEF7DEF7DEF7DEF7DEF7DEF7DEF7DE5A
:104EB000F7DEF7DEF7DEF7DEF7DEF7DEF7DEF7DE4A
:104EC000F7DEF7DEF7DEF7DEF7DEF7DEF7DEF7DE3A
:104ED000F7DEF7DEF7DEF7DEF7DEF7DEF7DEF7DE2A
:104EE000F7DEF7DEF7DEF7DEF7DEF7DEF7DEF7DE1A
:104EF000F7DEF7DEF7DEF7DEF7DEF7DEF7DEF7DE0A
:104F0000F7DEF7DEF7DEF7DEF7DEF7DEF7DEF7DEF9
:104F1000F7DEF7DEF7DEF7DEF7DEF7DEF7DEF7DEE9
:104F2000F7DEF7DEF7DEF7DEF7DEF7DEF7DEF7DED9
:104F3000F7DEF7DEF7DEF7DEF7DEF7DEF7DEF7DEC9
:104F4000F7DEF7DEF7DEF7DEF7DEF7DEF7DEF7DEB9
:104F5000F7DEF7DEF7DEF7DEF7DEF7DEF7DEF7DEA9
:104F6000F7DEF7DEF7DEF7DEF7DEF7DEF7DEF7DE99
:104F7000F7DEF7DEF7DEF7DEF7DEFFFFFFFFFFFF0E
:104F8000F7DEF7DEF7DEF7DEF7DEF7DEF7DEF7DE79
:104F9000F7DEF7DEF7DEF7DEF7DEF7DEF7DEF7DE69
:104FA000F7DEF7DEF7DEF7DEF7DEF7DEF7DEF7DE59
:104FB000F7DEF7DEF7DEF7DEF7DEF7DEF7DEF7DE49
:104FC000F7DEF7DEF7DEF7DEF7DEF7DEF7DEF7DE39
:104FD000F7DEF7DEF7DEF7DEF7DEF7DEF7DEF7DE29
:104FE000F7DEF7DEF7DEF7DEF7DEF7DEF7DEF7DE19
:104FF000F7DEF7DEF7DEF7DEF7DEF7DEF7DEF7DE09
:10500000F7DEF7DEF7DEF7DEF7DEF7DEF7DEF7DEF8
:10501000F7DEF7DEF7DEF7DEF7DEF7DEF7DEF7DEE8
:10502000F7DEF7DEF7DEF7DEF7DEF7DEF7DEF7DED8
:10503000F7DEF7DEF7DEF7DEF7DEF7DEF7DEF7DEC8
:10504000F7DEF7DEF7DEF7DEF7DEF7DEF7DEF7DEB8
:10505000F7DEF7DEF7DEF7DEF7DEF7DEF7DEF7DEA8
:10506000F7DEF7DEF7DEF7DEF7DEF7DEF7DEF7DE98
:10507000F7DEF7DEF7DEF7DEF7DEF7DEF7DEF7DE88
:10508000F7DEF7DEF7DEF7DEF7DEF7DEF7DEF7DE78
:10509000F7DEF7DEF7DEF7DEF7DEF7DEF7DEF7DE68
:1050A000F7DEF7DEF7DEF7DEF7DEF7DEF7DEF7DE58
:1050B000F7DEF7DEF7DEF7DEFFFFFFFF00000000A0
:1050C00000000000000000000000000000000000E0
:1050D0000000000000000000000000000038000098
:1050E00000FE000000FF000001FF800001E78000DB
:1050F00003C7C00003C3C0F003C1E0E00781F1E0D3
:105100000780F1E00080F9E0000079C000003FC0B6
:1051100000003FC000001F800000070000000000EA
:10512000000000000000000000000000000000007F
:10513000000000000000000000000000000000006F
:10514000000000000000000000000000000000005F
:105150000000000000000000000000000FFFC0F091
:105160000FFFC0F00FFFC0F00F03C0F00F03C0F03F
:105170000F03C0F00F03C0F00F03C0F00F03C0F027
:105180000F03C0F00F03C0F00F03C0F00F03C0F017
:105190000F03FFF00F03FFF00F03FFF00F03FFF00B
:1051A00000000000000000000000000000000000FF
:1051B00000000000000000000000000000000000EF
:1051C00000000000000000000000000000000000DF
:1051D00000000000000000000000000000100000BF
:1051E00000380000007C0000007E004000FF00E06E
:1051F00000FF80F001F7C1F001E3E1E003E1F3E03B
:1052000003C0FBC000C07FC000003F8000001F80C3
:1052100000000F0000000700000006000000000072
:10522000000000000000000000000000000000007E
:0C52300000000000000000000000000072
:04523C00D9CFE6FFE1
:10524000E1CFD9FF809C809C80988098809E809E32
:10525000FE0EDB50846E040EE66EE66AECEC3FF068
:10526000E552E552808E808E020EE66EE66AECEC28
:105270003FF0E552E55280888088808C808CE55232
:10528000E7CFD9FF1200D9CFE6FFE1CFD9FF808C5D
:10529000808C80988098809E809EFE0EDB50846E6D
:1052A000040EE66EE66AECEC3FF0E552E552808EC5
:1052B000808E020EE66EE66AECEC3FF0E552E552B7
:1052C00080888088E552E7CFD9FF1200808C808EDD
:1052D00080888468010EE66EB1DFE552050EE66E49
:1052E000E66A78EC40F0E552E552110EE66EA6DF74
:1052F000E552F40EE66E010EE66EECEC3FF0E55280
:10530000E552360EE66E9ADFE552A00EE66EBBDF82
:10531000E5523A0EE66E92DFE552750EE66EB3DFA9
:10532000E552260EE66E8ADFE552040EE66EABDF2E
:10533000E552C00EE66E82DFE552050EE66EA3DF93
:10534000E552050EE66E9FDFE552C10EE66E76DF92
:10535000E552070EE66E97DFE552C20EE66E6EDF8F
:10536000E552050EE66E8FDFE552020EE66E8BDF2C
:10537000E552C30EE66E62DFE552050EE66E83DF90
:10538000E552020EE66E7FDFE552C40EE66E56DF92
:10539000E552050EE66E77DFE552020EE66E73DF2C
:1053A000E552360EE66E4ADFE552A00EE66E6BDF82
:1053B000E55205D8290EE66E41DFE55212002A0EAD
:1053C000E66E3CDFE552E66A5EDFE552010EE66E10
:1053D0005ADFE552E66A57DFE552800EE66E53DF8C
:1053E000E5522B0EE66E2ADFE552E66A4CDFE55207
:1053F000010EE66E48DFE552E66A45DFE552A00E93
:10540000E66E41DFE5521200D9CFE6FFE1CFD9FFCA
:10541000040EE126F90EDBCF04F0FA0EDBCF05F027
:10542000FD0EDB50045C026EFE0EDB500558036E71
:10543000010E0226000E0322F70EDBCF08F0F80E55
:10544000DBCF09F0FB0EDB50085C066EFC0EDB5078
:105450000958076E010E0626000E072200010650AD
:105460000202F3CF00F0F4CF01F00302F350012663
:1054700007500202F3500126D89000360136020E82
:1054800000C0DBFF030E01C0DBFF2A0EE66ED6DE96
:10549000E552FD0EDBCF00F0FE0EDBCF01F0000E7B
:1054A0000016FF0E011601C000F0016A0050E66E02
:1054B000EADEE552FF0EE76EFD0EDBCF00F0FE0EDA
:1054C000DBCF01F0E7500016016A0050E66EDBDE2C
:1054D000E552F90EDBCF00F0FA0EDBCF01F0000E43
:1054E0000016FF0E011601C000F0016A0050E66EC2
:1054F000CADEE552FF0EE76EF90EDBCF00F0FA0EC2
:10550000DBCF01F0E7500016016A0050E66EBBDE0B
:10551000E5522B0EE66E92DEE552FB0EDBCF00F07D
:10552000FC0EDBCF01F0000E0016FF0E011601C0CD
:1055300000F0016A0050E66EA6DEE552FF0EE76E4F
:10554000FB0EDBCF00F0FC0EDBCF01F0E7500016C6
:10555000016A0050E66E97DEE552F70EDBCF00F0F1
:10556000F80EDBCF01F0000E0016FF0E011601C091
:1055700000F0016A0050E66E86DEE552FF0EE76E2F
:10558000F70EDBCF00F0F80EDBCF01F0E75000168E
:10559000016A0050E66E77DEE5522C0EE66E4EDEB6
:1055A000E552DE6ADD6ADECF00F0DDCF01F0020EEB
:1055B000DBCF02F0030EDBCF03F00250005C0350A0
:1055C000015817E2F50EDBCF00F0F60EDBCF01F04D
:1055D00001C000F0016A0050E66E55DEE552F50E9E
:1055E000DBCFE6FF50DEE552020EDE26000EDD22A6
:1055F000DAD7040EE15C02E2E16AE552E16EE552BF
:10560000E7CFD9FF1200D9CFE6FFE1CFD9FF060ED1
:10561000E126F90EDBCF00F0FA0EDBCF01F0000E31
:105620000016FF0E011601C000F0016A040E00C052
:10563000DBFFF90EDB50E76E050EE7CFDBFF2A0E2E
:10564000E66EFCDDE552FD0EDBCF00F0FE0EDBCF9B
:1056500001F0000E0016FF0E011601C000F0016AF5
:105660000050E66E10DEE552FD0EDBCFE6FF0BDEEE
:10567000E5522B0EE66EE2DDE552FB0EDBCF00F0CD
:10568000FC0EDBCF01F0000E0016FF0E011601C06C
:1056900000F0016A0050E66EF6DDE552FB0EDBCF4E
:1056A000E6FFF1DDE5522C0EE66EC8DDE552040E94
:1056B000DBCFE6FFE8DDE552050EDBCFE6FFE3DDFD
:1056C000E552060EE15C02E2E16AE552E16EE55266
:1056D000E7CFD9FF1200D9CFE6FFE1CFD9FF080EFF
:1056E000E126FB0EDBCF02F0FC0EDBCF03F0FD0E5C
:1056F000DB50025C006EFE0EDB500358016ED8904A
:1057000000360136020E00C0DBFF030E01C0DBFFD6
:10571000F70EDBCF00F0F80EDBCF01F0000E001625
:10572000FF0E011601C000F0016A060E00C0DBFF8B
:10573000F70EDB50E76E070EE7CFDBFF2A0EE66EB3
:105740007DDDE552FD0EDBCF00F0FE0EDBCF01F07C
:10575000000E0016FF0E011601C000F0016A005095
:10576000E66E91DDE552FD0EDBCFE6FF8CDDE55206
:10577000FB0EDBCF00F0FC0EDBCF01F0000E0016BD
:10578000FF0E011601C000F0016A0050E66E7BDDDD
:10579000E552FB0EDBCFE6FF76DDE5522B0EE66E23
:1057A0004DDDE552F90EDBCF00F0FA0EDBCF01F054
:1057B000000E0016FF0E011601C000F0016A005035
:1057C000E66E61DDE552F90EDBCFE6FF5CDDE5520A
:1057D0002C0EE66E33DDE552DE6ADD6ADECF00F0C8
:1057E000DDCF01F0020EDBCF02F0030EDBCF03F0C2
:1057F0000250005C035001580FE2060EDBCFE6FFBB
:1058000042DDE552070EDBCFE6FF3DDDE552020E3D
:10581000DE26000EDD22E2D7080EE15C02E2E16A3C
:10582000E552E16EE552E7CFD9FF1200D9CFE6FF8E
:10583000E1CFD9FF020EE126FB0EDBCFDEFFDBCF8F
:10584000DDFFDECF00F0DDCF01F0F90EDBCF02F09F
:10585000FA0EDBCF03F00250005C035001581AE24D
:10586000F70EDBCFE6FFF80EDBCFE6FFDECFE6FF7D
:10587000DDCFE6FFFD0EDBCFE6FFFE0EDBCFE6FF62
:10588000C2DE006E060EE15E0050DF2A010E01E36B
:10589000DB2AD7D7020EE15C02E2E16AE552E16E53
:1058A000E552E7CFD9FF1200D9CFE6FFE1CFD9FF0C
:1058B000060EE126F90EDBCF04F0FA0EDBCF05F081
:1058C000FD0EDB50045C026EFE0EDB500558036ECD
:1058D000010E0226000E0322F70EDBCF08F0F80EB1
:1058E000DBCF09F0FB0EDB50085C066EFC0EDB50D4
:1058F0000958076E010E0626000E07220001065009
:105900000202F3CF00F0F4CF01F00302F3500126BE
:1059100007500202F3500126D89000360136020EDD
:1059200000C0DBFF030E01C0DBFFF50EDBCF00F094
:10593000F60EDBCF01F0000E0016FF0E011601C0BF
:1059400000F0016A040E00C0DBFFF50EDB50E76ECD
:10595000050EE7CFDBFF2A0EE66E70DCE552FD0E8A
:10596000DBCF00F0FE0EDBCF01F0000E0016FF0EC5
:10597000011601C000F0016A0050E66E84DCE552B9
:10598000FD0EDBCFE6FF7FDCE552F90EDBCF00F04A
:10599000FA0EDBCF01F0000E0016FF0E011601C05B
:1059A00000F0016A0050E66E6EDCE552F90EDBCFC6
:1059B000E6FF69DCE5522B0EE66E40DCE552FB0E9D
:1059C000DBCF00F0FC0EDBCF01F0000E0016FF0E67
:1059D000011601C000F0016A0050E66E54DCE55289
:1059E000FB0EDBCFE6FF4FDCE552F70EDBCF00F01E
:1059F000F80EDBCF01F0000E0016FF0E011601C0FD
:105A000000F0016A0050E66E3EDCE552F70EDBCF97
:105A1000E6FF39DCE5522C0EE66E10DCE552DE6A5C
:105A2000DD6ADECF00F0DDCF01F0020EDBCF02F049
:105A3000030EDBCF03F00250005C035001580FE26D
:105A4000040EDBCFE6FF1FDCE552050EDBCFE6FFE1
:105A50001ADCE552020EDE26000EDD22E2D7060E2B
:105A6000E15C02E2E16AE552E16EE552E7CFD9FF7F
:105A70001200D9CFE6FFE1CFD9FFD950FD0FE96E73
:105A8000FF0EDA20EA6EEE2A000EED22D950FB0F4F
:105A9000E96EFF0EDA20EA6E020EEE26000EED220F
:105AA000D950F90FE96EFF0EDA20EA6EEE2A000EE9
:105AB000ED22D950F70FE96EFF0EDA20EA6E020EE2
